{
  "contractName": "ContractCreator",
  "abi": [
    {
      "constant": true,
      "inputs": [],
      "name": "feeContract",
      "outputs": [
        {
          "name": "",
          "type": "address"
        }
      ],
      "payable": false,
      "stateMutability": "view",
      "type": "function"
    },
    {
      "constant": true,
      "inputs": [
        {
          "name": "",
          "type": "uint256"
        }
      ],
      "name": "contracts",
      "outputs": [
        {
          "name": "",
          "type": "address"
        }
      ],
      "payable": false,
      "stateMutability": "view",
      "type": "function"
    },
    {
      "constant": true,
      "inputs": [],
      "name": "stopped",
      "outputs": [
        {
          "name": "",
          "type": "bool"
        }
      ],
      "payable": false,
      "stateMutability": "view",
      "type": "function"
    },
    {
      "constant": true,
      "inputs": [],
      "name": "owner",
      "outputs": [
        {
          "name": "",
          "type": "address"
        }
      ],
      "payable": false,
      "stateMutability": "view",
      "type": "function"
    },
    {
      "constant": true,
      "inputs": [],
      "name": "numberOfBlocksToPreventFrontRunning",
      "outputs": [
        {
          "name": "",
          "type": "uint8"
        }
      ],
      "payable": false,
      "stateMutability": "view",
      "type": "function"
    },
    {
      "inputs": [
        {
          "name": "newNumberOfBlocksToPreventFrontRunning",
          "type": "uint8"
        },
        {
          "name": "denominatorFee",
          "type": "uint8"
        },
        {
          "name": "feeAddress",
          "type": "address"
        }
      ],
      "payable": false,
      "stateMutability": "nonpayable",
      "type": "constructor"
    },
    {
      "anonymous": false,
      "inputs": [
        {
          "indexed": false,
          "name": "addr",
          "type": "address"
        }
      ],
      "name": "NewTradeableWallet",
      "type": "event"
    },
    {
      "constant": false,
      "inputs": [],
      "name": "kill",
      "outputs": [],
      "payable": false,
      "stateMutability": "nonpayable",
      "type": "function"
    },
    {
      "constant": false,
      "inputs": [],
      "name": "createTradeableContract",
      "outputs": [
        {
          "name": "subcontractAddr",
          "type": "address"
        }
      ],
      "payable": false,
      "stateMutability": "nonpayable",
      "type": "function"
    },
    {
      "constant": false,
      "inputs": [
        {
          "name": "b",
          "type": "bool"
        }
      ],
      "name": "setCircuitBreaker",
      "outputs": [],
      "payable": false,
      "stateMutability": "nonpayable",
      "type": "function"
    },
    {
      "constant": false,
      "inputs": [
        {
          "name": "n",
          "type": "uint8"
        }
      ],
      "name": "setNumberOfBlocksToPreventFrontRunning",
      "outputs": [],
      "payable": false,
      "stateMutability": "nonpayable",
      "type": "function"
    },
    {
      "constant": true,
      "inputs": [],
      "name": "getNumberOfBlocksToPreventFrontRunning",
      "outputs": [
        {
          "name": "",
          "type": "uint8"
        }
      ],
      "payable": false,
      "stateMutability": "view",
      "type": "function"
    },
    {
      "constant": true,
      "inputs": [],
      "name": "getContractCount",
      "outputs": [
        {
          "name": "contractCount",
          "type": "uint256"
        }
      ],
      "payable": false,
      "stateMutability": "view",
      "type": "function"
    },
    {
      "constant": true,
      "inputs": [
        {
          "name": "index",
          "type": "uint256"
        }
      ],
      "name": "getContractAt",
      "outputs": [
        {
          "name": "",
          "type": "address"
        }
      ],
      "payable": false,
      "stateMutability": "view",
      "type": "function"
    },
    {
      "constant": true,
      "inputs": [],
      "name": "getOwner",
      "outputs": [
        {
          "name": "",
          "type": "address"
        }
      ],
      "payable": false,
      "stateMutability": "view",
      "type": "function"
    },
    {
      "constant": true,
      "inputs": [],
      "name": "getFeeContractAddress",
      "outputs": [
        {
          "name": "",
          "type": "address"
        }
      ],
      "payable": false,
      "stateMutability": "view",
      "type": "function"
    }
  ],
  "bytecode": "0x608060405260008060006101000a81548160ff02191690831515021790555034801561002a57600080fd5b5060405160608061391383398101806040528101908080519060200190929190805190602001909291908051906020019092919050505033600060016101000a81548173ffffffffffffffffffffffffffffffffffffffff021916908373ffffffffffffffffffffffffffffffffffffffff16021790555082600260146101000a81548160ff021916908360ff160217905550600060019054906101000a900473ffffffffffffffffffffffffffffffffffffffff1682826100ea6101c5565b808473ffffffffffffffffffffffffffffffffffffffff1673ffffffffffffffffffffffffffffffffffffffff1681526020018360ff1660ff1681526020018273ffffffffffffffffffffffffffffffffffffffff1673ffffffffffffffffffffffffffffffffffffffff1681526020019350505050604051809103906000f08015801561017c573d6000803e3d6000fd5b50600260006101000a81548173ffffffffffffffffffffffffffffffffffffffff021916908373ffffffffffffffffffffffffffffffffffffffff1602179055505050506101d5565b604051610bd480612d3f83390190565b612b5b806101e46000396000f3006080604052600436106100d0576000357c0100000000000000000000000000000000000000000000000000000000900463ffffffff16806306e29712146100d557806341c0e1b51461012c5780634250644914610143578063474da79a1461017257806375f12b21146101df578063792e82ca1461020e57806379b0676b1461023e578063893d20e8146102ab5780638da5cb5b146103025780639399869d14610359578063b5e751df14610384578063da573c67146103db578063ec55cff61461040c578063fdafbf3214610463575b600080fd5b3480156100e157600080fd5b506100ea610494565b604051808273ffffffffffffffffffffffffffffffffffffffff1673ffffffffffffffffffffffffffffffffffffffff16815260200191505060405180910390f35b34801561013857600080fd5b506101416104ba565b005b34801561014f57600080fd5b50610170600480360381019080803515159060200190929190505050610551565b005b34801561017e57600080fd5b5061019d600480360381019080803590602001909291905050506105c9565b604051808273ffffffffffffffffffffffffffffffffffffffff1673ffffffffffffffffffffffffffffffffffffffff16815260200191505060405180910390f35b3480156101eb57600080fd5b506101f4610607565b604051808215151515815260200191505060405180910390f35b34801561021a57600080fd5b5061023c600480360381019080803560ff169060200190929190505050610619565b005b34801561024a57600080fd5b5061026960048036038101908080359060200190929190505050610693565b604051808273ffffffffffffffffffffffffffffffffffffffff1673ffffffffffffffffffffffffffffffffffffffff16815260200191505060405180910390f35b3480156102b757600080fd5b506102c06106ed565b604051808273ffffffffffffffffffffffffffffffffffffffff1673ffffffffffffffffffffffffffffffffffffffff16815260200191505060405180910390f35b34801561030e57600080fd5b50610317610716565b604051808273ffffffffffffffffffffffffffffffffffffffff1673ffffffffffffffffffffffffffffffffffffffff16815260200191505060405180910390f35b34801561036557600080fd5b5061036e61073c565b6040518082815260200191505060405180910390f35b34801561039057600080fd5b50610399610749565b604051808273ffffffffffffffffffffffffffffffffffffffff1673ffffffffffffffffffffffffffffffffffffffff16815260200191505060405180910390f35b3480156103e757600080fd5b506103f06108f7565b604051808260ff1660ff16815260200191505060405180910390f35b34801561041857600080fd5b5061042161090e565b604051808273ffffffffffffffffffffffffffffffffffffffff1673ffffffffffffffffffffffffffffffffffffffff16815260200191505060405180910390f35b34801561046f57600080fd5b50610478610938565b604051808260ff1660ff16815260200191505060405180910390f35b600260009054906101000a900473ffffffffffffffffffffffffffffffffffffffff1681565b600060019054906101000a900473ffffffffffffffffffffffffffffffffffffffff1673ffffffffffffffffffffffffffffffffffffffff163373ffffffffffffffffffffffffffffffffffffffff1614151561051657600080fd5b600060019054906101000a900473ffffffffffffffffffffffffffffffffffffffff1673ffffffffffffffffffffffffffffffffffffffff16ff5b600060019054906101000a900473ffffffffffffffffffffffffffffffffffffffff1673ffffffffffffffffffffffffffffffffffffffff163373ffffffffffffffffffffffffffffffffffffffff161415156105ad57600080fd5b806000806101000a81548160ff02191690831515021790555050565b6001818154811015156105d857fe5b906000526020600020016000915054906101000a900473ffffffffffffffffffffffffffffffffffffffff1681565b6000809054906101000a900460ff1681565b600060019054906101000a900473ffffffffffffffffffffffffffffffffffffffff1673ffffffffffffffffffffffffffffffffffffffff163373ffffffffffffffffffffffffffffffffffffffff1614151561067557600080fd5b80600260146101000a81548160ff021916908360ff16021790555050565b60006001805490508210156106e3576001828154811015156106b157fe5b9060005260206000200160009054906101000a900473ffffffffffffffffffffffffffffffffffffffff1690506106e8565b600090505b919050565b60008060019054906101000a900473ffffffffffffffffffffffffffffffffffffffff16905090565b600060019054906101000a900473ffffffffffffffffffffffffffffffffffffffff1681565b6000600180549050905090565b6000806000809054906101000a900460ff1615151561076757600080fd5b33600260009054906101000a900473ffffffffffffffffffffffffffffffffffffffff1660f061079561094b565b808473ffffffffffffffffffffffffffffffffffffffff1673ffffffffffffffffffffffffffffffffffffffff1681526020018373ffffffffffffffffffffffffffffffffffffffff1673ffffffffffffffffffffffffffffffffffffffff1681526020018260ff1681526020019350505050604051809103906000f080158015610824573d6000803e3d6000fd5b50905060018190806001815401808255809150509060018203906000526020600020016000909192909190916101000a81548173ffffffffffffffffffffffffffffffffffffffff021916908373ffffffffffffffffffffffffffffffffffffffff160217905550507fcf7d6721918b3164d3679248fb2d841009588e2d7dde6361beceade182a24f4081604051808273ffffffffffffffffffffffffffffffffffffffff1673ffffffffffffffffffffffffffffffffffffffff16815260200191505060405180910390a18091505090565b6000600260149054906101000a900460ff16905090565b6000600260009054906101000a900473ffffffffffffffffffffffffffffffffffffffff16905090565b600260149054906101000a900460ff1681565b6040516121d48061095c833901905600608060405234801561001057600080fd5b506040516060806121d4833981018060405281019080805190602001909291908051906020019092919080519060200190929190505050826000806101000a81548173ffffffffffffffffffffffffffffffffffffffff021916908373ffffffffffffffffffffffffffffffffffffffff16021790555081600360006101000a81548173ffffffffffffffffffffffffffffffffffffffff021916908373ffffffffffffffffffffffffffffffffffffffff16021790555080600360146101000a81548160ff021916908360ff1602179055507f09f86d61eb5d6904c1fa8e5f071f171ec90eccc6e0a7b61d563a7d693db815f660008060009054906101000a900473ffffffffffffffffffffffffffffffffffffffff16604051808373ffffffffffffffffffffffffffffffffffffffff1681526020018273ffffffffffffffffffffffffffffffffffffffff1673ffffffffffffffffffffffffffffffffffffffff1681526020019250505060405180910390a150505061203c806101986000396000f30060806040526004361061013e576000357c0100000000000000000000000000000000000000000000000000000000900463ffffffff16806306e29712146101b557806307cd25891461020c5780631221c8111461023b578063215238ac1461026857806343ff4564146102f85780634af1c8a914610333578063521568bd1461036457806359172f5d1461038f5780636c49286e146103f45780637ef4cb1f1461047957806382ef42ec1461049057806383894548146104bb578063893d20e814610512578063897fbabf146105695780638da5cb5b146105f9578063a60f7a3814610650578063adff0b3f146106b5578063b17fd105146106e0578063c0ee0b8a14610737578063c7f7bd1d1461079c578063cb7c86b2146107eb578063ea46193e146107f5578063ec55cff614610820578063fdafbf3214610877575b60008036905014151561015057600080fd5b7fbf1867699ca82c037f48dd4280d187dc55f63fff3103b818cfcf938891ec9b1d33604051808273ffffffffffffffffffffffffffffffffffffffff1673ffffffffffffffffffffffffffffffffffffffff16815260200191505060405180910390a1005b3480156101c157600080fd5b506101ca6108a8565b604051808273ffffffffffffffffffffffffffffffffffffffff1673ffffffffffffffffffffffffffffffffffffffff16815260200191505060405180910390f35b34801561021857600080fd5b506102216108ce565b604051808215151515815260200191505060405180910390f35b34801561024757600080fd5b50610266600480360381019080803590602001909291905050506108e1565b005b34801561027457600080fd5b5061027d610a87565b6040518080602001828103825283818151815260200191508051906020019080838360005b838110156102bd5780820151818401526020810190506102a2565b50505050905090810190601f1680156102ea5780820380516001836020036101000a031916815260200191505b509250505060405180910390f35b34801561030457600080fd5b50610331600480360381019080803590602001908201803590602001919091929391929390505050610b25565b005b34801561033f57600080fd5b50610348610b96565b604051808260ff1660ff16815260200191505060405180910390f35b34801561037057600080fd5b50610379610c5e565b6040518082815260200191505060405180910390f35b34801561039b57600080fd5b506103f2600480360381019080803573ffffffffffffffffffffffffffffffffffffffff16906020019092919080359060200190929190803590602001908201803590602001919091929391929390505050610cd4565b005b34801561040057600080fd5b5061045f600480360381019080803573ffffffffffffffffffffffffffffffffffffffff169060200190929190803573ffffffffffffffffffffffffffffffffffffffff16906020019092919080359060200190929190505050611027565b604051808215151515815260200191505060405180910390f35b34801561048557600080fd5b5061048e611235565b005b34801561049c57600080fd5b506104a5611356565b6040518082815260200191505060405180910390f35b3480156104c757600080fd5b506104fc600480360381019080803573ffffffffffffffffffffffffffffffffffffffff16906020019092919050505061135c565b6040518082815260200191505060405180910390f35b34801561051e57600080fd5b5061052761143b565b604051808273ffffffffffffffffffffffffffffffffffffffff1673ffffffffffffffffffffffffffffffffffffffff16815260200191505060405180910390f35b34801561057557600080fd5b5061057e611464565b6040518080602001828103825283818151815260200191508051906020019080838360005b838110156105be5780820151818401526020810190506105a3565b50505050905090810190601f1680156105eb5780820380516001836020036101000a031916815260200191505b509250505060405180910390f35b34801561060557600080fd5b5061060e611506565b604051808273ffffffffffffffffffffffffffffffffffffffff1673ffffffffffffffffffffffffffffffffffffffff16815260200191505060405180910390f35b34801561065c57600080fd5b5061069b600480360381019080803573ffffffffffffffffffffffffffffffffffffffff1690602001909291908035906020019092919050505061152b565b604051808215151515815260200191505060405180910390f35b3480156106c157600080fd5b506106ca61177a565b6040518082815260200191505060405180910390f35b3480156106ec57600080fd5b5061073560048036038101908080356fffffffffffffffffffffffffffffffff169060200190929190803590602001908201803590602001919091929391929390505050611789565b005b34801561074357600080fd5b5061079a600480360381019080803573ffffffffffffffffffffffffffffffffffffffff1690602001909291908035906020019092919080359060200190820180359060200191909192939192939050505061190a565b005b3480156107a857600080fd5b506107b1611910565b60405180826fffffffffffffffffffffffffffffffff166fffffffffffffffffffffffffffffffff16815260200191505060405180910390f35b6107f3611932565b005b34801561080157600080fd5b5061080a611e17565b6040518082815260200191505060405180910390f35b34801561082c57600080fd5b50610835611e36565b604051808273ffffffffffffffffffffffffffffffffffffffff1673ffffffffffffffffffffffffffffffffffffffff16815260200191505060405180910390f35b34801561088357600080fd5b5061088c611e60565b604051808260ff1660ff16815260200191505060405180910390f35b600360009054906101000a900473ffffffffffffffffffffffffffffffffffffffff1681565b600160109054906101000a900460ff1681565b6000809054906101000a900473ffffffffffffffffffffffffffffffffffffffff1673ffffffffffffffffffffffffffffffffffffffff163373ffffffffffffffffffffffffffffffffffffffff1614151561093c57600080fd5b6000610946611e73565b14151561095257600080fd5b803073ffffffffffffffffffffffffffffffffffffffff16311015151561097857600080fd5b600115157fcc38ac3dbb31268ea879b9ac1a13d0b77f2810426d3df69cd10198d4cee4972f6000809054906101000a900473ffffffffffffffffffffffffffffffffffffffff1683604051808373ffffffffffffffffffffffffffffffffffffffff1673ffffffffffffffffffffffffffffffffffffffff16815260200182815260200180602001828103825260008152602001602001935050505060405180910390a26000809054906101000a900473ffffffffffffffffffffffffffffffffffffffff1673ffffffffffffffffffffffffffffffffffffffff166108fc829081150290604051600060405180830381858888f19350505050158015610a83573d6000803e3d6000fd5b5050565b60028054600181600116156101000203166002900480601f016020809104026020016040519081016040528092919081815260200182805460018160011615610100020316600290048015610b1d5780601f10610af257610100808354040283529160200191610b1d565b820191906000526020600020905b815481529060010190602001808311610b0057829003601f168201915b505050505081565b6000809054906101000a900473ffffffffffffffffffffffffffffffffffffffff1673ffffffffffffffffffffffffffffffffffffffff163373ffffffffffffffffffffffffffffffffffffffff16141515610b8057600080fd5b818160029190610b91929190611f6b565b505050565b6000600360009054906101000a900473ffffffffffffffffffffffffffffffffffffffff1673ffffffffffffffffffffffffffffffffffffffff16634af1c8a96040518163ffffffff167c0100000000000000000000000000000000000000000000000000000000028152600401602060405180830381600087803b158015610c1e57600080fd5b505af1158015610c32573d6000803e3d6000fd5b505050506040513d6020811015610c4857600080fd5b8101908080519060200190929190505050905090565b6000600160109054906101000a900460ff1615610cad57600160009054906101000a90046fffffffffffffffffffffffffffffffff166fffffffffffffffffffffffffffffffff169050610cd1565b7fffffffffffffffffffffffffffffffffffffffffffffffffffffffffffffffff90505b90565b60008060009054906101000a900473ffffffffffffffffffffffffffffffffffffffff1673ffffffffffffffffffffffffffffffffffffffff163373ffffffffffffffffffffffffffffffffffffffff16141515610d3157600080fd5b6000610d3b611e73565b141515610d4757600080fd5b600073ffffffffffffffffffffffffffffffffffffffff168573ffffffffffffffffffffffffffffffffffffffff1614151515610d8357600080fd5b3073ffffffffffffffffffffffffffffffffffffffff168573ffffffffffffffffffffffffffffffffffffffff1614151515610dbe57600080fd5b833073ffffffffffffffffffffffffffffffffffffffff163110151515610de457600080fd5b600015157fcc38ac3dbb31268ea879b9ac1a13d0b77f2810426d3df69cd10198d4cee4972f86868686604051808573ffffffffffffffffffffffffffffffffffffffff1673ffffffffffffffffffffffffffffffffffffffff16815260200184815260200180602001828103825284848281815260200192508082843782019150509550505050505060405180910390a260007f01000000000000000000000000000000000000000000000000000000000000000290508060405180827effffffffffffffffffffffffffffffffffffffffffffffffffffffffffffff19167effffffffffffffffffffffffffffffffffffffffffffffffffffffffffffff19168152600101915050604051809103902060001916838360405180838380828437820191505092505050604051809103902060001916141515610fd8578473ffffffffffffffffffffffffffffffffffffffff168484846040518083838082843782019150509250505060006040518083038185875af1925050501515610fd3576040517f08c379a000000000000000000000000000000000000000000000000000000000815260040180806020018281038252600f8152602001807f5472616e73666572206661696c6564000000000000000000000000000000000081525060200191505060405180910390fd5b611020565b8473ffffffffffffffffffffffffffffffffffffffff166108fc859081150290604051600060405180830381858888f1935050505015801561101e573d6000803e3d6000fd5b505b5050505050565b6000806000809054906101000a900473ffffffffffffffffffffffffffffffffffffffff1673ffffffffffffffffffffffffffffffffffffffff163373ffffffffffffffffffffffffffffffffffffffff1614151561108557600080fd5b600061108f611e73565b14151561109b57600080fd5b8473ffffffffffffffffffffffffffffffffffffffff1663a9059cbb85856040518363ffffffff167c0100000000000000000000000000000000000000000000000000000000028152600401808373ffffffffffffffffffffffffffffffffffffffff1673ffffffffffffffffffffffffffffffffffffffff16815260200182815260200192505050602060405180830381600087803b15801561113e57600080fd5b505af1158015611152573d6000803e3d6000fd5b505050506040513d602081101561116857600080fd5b81019080805190602001909291905050509050600015157faeceea4a0cf1f3d21fe26bb8ba350edc1eadf24df06e0166857a4127b65aad0a86868685604051808573ffffffffffffffffffffffffffffffffffffffff1673ffffffffffffffffffffffffffffffffffffffff1681526020018473ffffffffffffffffffffffffffffffffffffffff1673ffffffffffffffffffffffffffffffffffffffff1681526020018381526020018215151515815260200194505050505060405180910390a2809150509392505050565b6000809054906101000a900473ffffffffffffffffffffffffffffffffffffffff1673ffffffffffffffffffffffffffffffffffffffff163373ffffffffffffffffffffffffffffffffffffffff1614151561129057600080fd5b611298611eec565b600015157f6a7cf879f8e37cc344a869ab29c3812a797b256761624c25b4cc30ee89901efe6000809054906101000a900473ffffffffffffffffffffffffffffffffffffffff1630604051808373ffffffffffffffffffffffffffffffffffffffff1673ffffffffffffffffffffffffffffffffffffffff1681526020018273ffffffffffffffffffffffffffffffffffffffff1673ffffffffffffffffffffffffffffffffffffffff1681526020019250505060405180910390a2565b60045481565b60008173ffffffffffffffffffffffffffffffffffffffff166370a08231306040518263ffffffff167c0100000000000000000000000000000000000000000000000000000000028152600401808273ffffffffffffffffffffffffffffffffffffffff1673ffffffffffffffffffffffffffffffffffffffff168152602001915050602060405180830381600087803b1580156113f957600080fd5b505af115801561140d573d6000803e3d6000fd5b505050506040513d602081101561142357600080fd5b81019080805190602001909291905050509050919050565b60008060009054906101000a900473ffffffffffffffffffffffffffffffffffffffff16905090565b606060028054600181600116156101000203166002900480601f0160208091040260200160405190810160405280929190818152602001828054600181600116156101000203166002900480156114fc5780601f106114d1576101008083540402835291602001916114fc565b820191906000526020600020905b8154815290600101906020018083116114df57829003601f168201915b5050505050905090565b6000809054906101000a900473ffffffffffffffffffffffffffffffffffffffff1681565b6000806000809054906101000a900473ffffffffffffffffffffffffffffffffffffffff1673ffffffffffffffffffffffffffffffffffffffff163373ffffffffffffffffffffffffffffffffffffffff1614151561158957600080fd5b6000611593611e73565b14151561159f57600080fd5b8373ffffffffffffffffffffffffffffffffffffffff1663a9059cbb6000809054906101000a900473ffffffffffffffffffffffffffffffffffffffff16856040518363ffffffff167c0100000000000000000000000000000000000000000000000000000000028152600401808373ffffffffffffffffffffffffffffffffffffffff1673ffffffffffffffffffffffffffffffffffffffff16815260200182815260200192505050602060405180830381600087803b15801561166357600080fd5b505af1158015611677573d6000803e3d6000fd5b505050506040513d602081101561168d57600080fd5b81019080805190602001909291905050509050600115157faeceea4a0cf1f3d21fe26bb8ba350edc1eadf24df06e0166857a4127b65aad0a856000809054906101000a900473ffffffffffffffffffffffffffffffffffffffff168685604051808573ffffffffffffffffffffffffffffffffffffffff1673ffffffffffffffffffffffffffffffffffffffff1681526020018473ffffffffffffffffffffffffffffffffffffffff1673ffffffffffffffffffffffffffffffffffffffff1681526020018381526020018215151515815260200194505050505060405180910390a28091505092915050565b6000611784611e73565b905090565b6000809054906101000a900473ffffffffffffffffffffffffffffffffffffffff1673ffffffffffffffffffffffffffffffffffffffff163373ffffffffffffffffffffffffffffffffffffffff161415156117e457600080fd5b60018060106101000a81548160ff02191690831515021790555082600160006101000a8154816fffffffffffffffffffffffffffffffff02191690836fffffffffffffffffffffffffffffffff160217905550818160029190611848929190611f6b565b50600115157f6a7cf879f8e37cc344a869ab29c3812a797b256761624c25b4cc30ee89901efe6000809054906101000a900473ffffffffffffffffffffffffffffffffffffffff1630604051808373ffffffffffffffffffffffffffffffffffffffff1673ffffffffffffffffffffffffffffffffffffffff1681526020018273ffffffffffffffffffffffffffffffffffffffff1673ffffffffffffffffffffffffffffffffffffffff1681526020019250505060405180910390a2505050565b50505050565b600160009054906101000a90046fffffffffffffffffffffffffffffffff1681565b60008060008060011515600160109054906101000a900460ff16151514151561195a57600080fd5b600160009054906101000a90046fffffffffffffffffffffffffffffffff166fffffffffffffffffffffffffffffffff16341015151561199957600080fd5b6000809054906101000a900473ffffffffffffffffffffffffffffffffffffffff169350336000806101000a81548173ffffffffffffffffffffffffffffffffffffffff021916908373ffffffffffffffffffffffffffffffffffffffff1602179055507f09f86d61eb5d6904c1fa8e5f071f171ec90eccc6e0a7b61d563a7d693db815f6846000809054906101000a900473ffffffffffffffffffffffffffffffffffffffff16604051808373ffffffffffffffffffffffffffffffffffffffff1673ffffffffffffffffffffffffffffffffffffffff1681526020018273ffffffffffffffffffffffffffffffffffffffff1673ffffffffffffffffffffffffffffffffffffffff1681526020019250505060405180910390a1611abd611eec565b600360009054906101000a900473ffffffffffffffffffffffffffffffffffffffff1673ffffffffffffffffffffffffffffffffffffffff1663854bf6a16040518163ffffffff167c0100000000000000000000000000000000000000000000000000000000028152600401602060405180830381600087803b158015611b4357600080fd5b505af1158015611b57573d6000803e3d6000fd5b505050506040513d6020811015611b6d57600080fd5b81019080805190602001909291905050509250600360009054906101000a900473ffffffffffffffffffffffffffffffffffffffff1673ffffffffffffffffffffffffffffffffffffffff1663745598b8600160009054906101000a90046fffffffffffffffffffffffffffffffff166000809054906101000a900473ffffffffffffffffffffffffffffffffffffffff166040518363ffffffff167c010000000000000000000000000000000000000000000000000000000002815260040180836fffffffffffffffffffffffffffffffff166fffffffffffffffffffffffffffffffff1681526020018273ffffffffffffffffffffffffffffffffffffffff1673ffffffffffffffffffffffffffffffffffffffff16815260200192505050602060405180830381600087803b158015611ca857600080fd5b505af1158015611cbc573d6000803e3d6000fd5b505050506040513d6020811015611cd257600080fd5b8101908080519060200190929190505050915081600160009054906101000a90046fffffffffffffffffffffffffffffffff160390506000600160006101000a8154816fffffffffffffffffffffffffffffffff02191690836fffffffffffffffffffffffffffffffff1602179055506000826fffffffffffffffffffffffffffffffff16141515611db8578273ffffffffffffffffffffffffffffffffffffffff166108fc836fffffffffffffffffffffffffffffffff169081150290604051600060405180830381858888f19350505050158015611db6573d6000803e3d6000fd5b505b8373ffffffffffffffffffffffffffffffffffffffff166108fc826fffffffffffffffffffffffffffffffff169081150290604051600060405180830381858888f19350505050158015611e10573d6000803e3d6000fd5b5050505050565b60003073ffffffffffffffffffffffffffffffffffffffff1631905090565b6000600360009054906101000a900473ffffffffffffffffffffffffffffffffffffffff16905090565b600360149054906101000a900460ff1681565b6000600160109054906101000a900460ff16151515611e9157600080fd5b60006004541415611ea55760009050611ee9565b600360149054906101000a900460ff1660ff166004540143101515611ecd5760009050611ee9565b43600360149054906101000a900460ff1660ff16600454010390505b90565b6000809054906101000a900473ffffffffffffffffffffffffffffffffffffffff1673ffffffffffffffffffffffffffffffffffffffff163373ffffffffffffffffffffffffffffffffffffffff16141515611f4757600080fd5b6000600160106101000a81548160ff02191690831515021790555043600481905550565b828054600181600116156101000203166002900490600052602060002090601f016020900481019282601f10611fac57803560ff1916838001178555611fda565b82800160010185558215611fda579182015b82811115611fd9578235825591602001919060010190611fbe565b5b509050611fe79190611feb565b5090565b61200d91905b80821115612009576000816000905550600101611ff1565b5090565b905600a165627a7a723058208bb0e9c0c605dc3d3fe7f72b6035321df3be7e0188663aff6deef42d94c53dc30029a165627a7a72305820428cb3d56ff1157fab2e68f6b1480a79387e7145a8f41dfaba97e53e87fdeda30029608060405234801561001057600080fd5b50604051606080610bd483398101806040528101908080519060200190929190805190602001909291908051906020019092919050505060228260ff161015151561005a57600080fd5b82600260006101000a81548173ffffffffffffffffffffffffffffffffffffffff021916908373ffffffffffffffffffffffffffffffffffffffff160217905550816000806101000a81548160ff021916908360ff16021790555080600060016101000a81548173ffffffffffffffffffffffffffffffffffffffff021916908373ffffffffffffffffffffffffffffffffffffffff160217905550505050610acc806101086000396000f3006080604052600436106100ba576000357c0100000000000000000000000000000000000000000000000000000000900463ffffffff16806319427867146100bf5780631a889ee0146100ea5780631f2be9c91461011a57806326f8a07a1461014b5780634af1c8a91461018e578063745598b8146101bf578063854bf6a1146102565780638a9ef1f8146102ad5780638da5cb5b1461031a578063b11ad25914610371578063cedc11c7146103ce578063d0686deb14610411575b600080fd5b3480156100cb57600080fd5b506100d4610454565b6040518082815260200191505060405180910390f35b3480156100f657600080fd5b50610118600480360381019080803560ff169060200190929190505050610461565b005b34801561012657600080fd5b5061012f6104ed565b604051808260ff1660ff16815260200191505060405180910390f35b34801561015757600080fd5b5061018c600480360381019080803573ffffffffffffffffffffffffffffffffffffffff1690602001909291905050506104ff565b005b34801561019a57600080fd5b506101a361059f565b604051808260ff1660ff16815260200191505060405180910390f35b3480156101cb57600080fd5b5061021c60048036038101908080356fffffffffffffffffffffffffffffffff169060200190929190803573ffffffffffffffffffffffffffffffffffffffff1690602001909291905050506105b5565b60405180826fffffffffffffffffffffffffffffffff166fffffffffffffffffffffffffffffffff16815260200191505060405180910390f35b34801561026257600080fd5b5061026b610631565b604051808273ffffffffffffffffffffffffffffffffffffffff1673ffffffffffffffffffffffffffffffffffffffff16815260200191505060405180910390f35b3480156102b957600080fd5b506102d86004803603810190808035906020019092919050505061065a565b604051808273ffffffffffffffffffffffffffffffffffffffff1673ffffffffffffffffffffffffffffffffffffffff16815260200191505060405180910390f35b34801561032657600080fd5b5061032f6106b0565b604051808273ffffffffffffffffffffffffffffffffffffffff1673ffffffffffffffffffffffffffffffffffffffff16815260200191505060405180910390f35b34801561037d57600080fd5b506103b2600480360381019080803573ffffffffffffffffffffffffffffffffffffffff1690602001909291905050506106d6565b604051808260000b60000b815260200191505060405180910390f35b3480156103da57600080fd5b5061040f600480360381019080803573ffffffffffffffffffffffffffffffffffffffff16906020019092919050505061079c565b005b34801561041d57600080fd5b50610452600480360381019080803573ffffffffffffffffffffffffffffffffffffffff1690602001909291905050506108a0565b005b6000600180549050905090565b600260009054906101000a900473ffffffffffffffffffffffffffffffffffffffff1673ffffffffffffffffffffffffffffffffffffffff163373ffffffffffffffffffffffffffffffffffffffff161415156104bd57600080fd5b60228160ff16101515156104d057600080fd5b806000806101000a81548160ff021916908360ff16021790555050565b6000809054906101000a900460ff1681565b600260009054906101000a900473ffffffffffffffffffffffffffffffffffffffff1673ffffffffffffffffffffffffffffffffffffffff163373ffffffffffffffffffffffffffffffffffffffff1614151561055b57600080fd5b80600060016101000a81548173ffffffffffffffffffffffffffffffffffffffff021916908373ffffffffffffffffffffffffffffffffffffffff16021790555050565b60008060009054906101000a900460ff16905090565b6000806105c1836106d6565b90507fffffffffffffffffffffffffffffffffffffffffffffffffffffffffffffffff8160000b1415156105f8576000915061062a565b6000809054906101000a900460ff1660ff16846fffffffffffffffffffffffffffffffff1681151561062657fe5b0491505b5092915050565b60008060019054906101000a900473ffffffffffffffffffffffffffffffffffffffff16905090565b60006001805490508210151561066f57600080fd5b60018281548110151561067e57fe5b9060005260206000200160009054906101000a900473ffffffffffffffffffffffffffffffffffffffff169050919050565b600260009054906101000a900473ffffffffffffffffffffffffffffffffffffffff1681565b60008060007fffffffffffffffffffffffffffffffffffffffffffffffffffffffffffffffff9150600090505b600180549050811015610792578373ffffffffffffffffffffffffffffffffffffffff1660018281548110151561073657fe5b9060005260206000200160009054906101000a900473ffffffffffffffffffffffffffffffffffffffff1673ffffffffffffffffffffffffffffffffffffffff16141561078557809150610792565b8080600101915050610703565b8192505050919050565b6000600260009054906101000a900473ffffffffffffffffffffffffffffffffffffffff1673ffffffffffffffffffffffffffffffffffffffff163373ffffffffffffffffffffffffffffffffffffffff161415156107fa57600080fd5b610803826106d6565b90507fffffffffffffffffffffffffffffffffffffffffffffffffffffffffffffffff8160000b14151561083657600080fd5b60018290806001815401808255809150509060018203906000526020600020016000909192909190916101000a81548173ffffffffffffffffffffffffffffffffffffffff021916908373ffffffffffffffffffffffffffffffffffffffff160217905550505050565b600080600260009054906101000a900473ffffffffffffffffffffffffffffffffffffffff1673ffffffffffffffffffffffffffffffffffffffff163373ffffffffffffffffffffffffffffffffffffffff161415156108ff57600080fd5b610908836106d6565b91507fffffffffffffffffffffffffffffffffffffffffffffffffffffffffffffffff8260000b1415151561093c57600080fd5b8160000b90505b60018080549050038110156109f257600180820181548110151561096357fe5b9060005260206000200160009054906101000a900473ffffffffffffffffffffffffffffffffffffffff1660018281548110151561099d57fe5b9060005260206000200160006101000a81548173ffffffffffffffffffffffffffffffffffffffff021916908373ffffffffffffffffffffffffffffffffffffffff1602179055508080600101915050610943565b600180808054905003815481101515610a0757fe5b9060005260206000200160006101000a81549073ffffffffffffffffffffffffffffffffffffffff02191690556001805480919060019003610a499190610a4f565b50505050565b815481835581811115610a7657818360005260206000209182019101610a759190610a7b565b5b505050565b610a9d91905b80821115610a99576000816000905550600101610a81565b5090565b905600a165627a7a72305820083163840b76d290cb89edc3271719c39cc1855eae0a0851c62c0765e9836df60029",
  "source": "pragma solidity ^0.4.23;\r\n\r\nimport \"./TradeableContract.sol\";\r\nimport \"./ITradeableContract.sol\";\r\nimport \"./FeeContract.sol\";\r\n\r\n/**\r\n * @title ContractCreator.\r\n * @dev Creator of Tradeable Wallet contracts. It is also a repository of Tradeable Wallet addresses.\r\n */\r\ncontract ContractCreator {\r\n\r\n  /**\r\n   * @dev Stores the information if the some functions should be paused in case of some undesirable situation (circuit breaker).   \r\n   */\r\n\tbool public stopped = false;\r\n\t\r\n  /**\r\n   * @dev Owner of this contract.   \r\n   */\r\n\taddress public owner;\t\r\n\r\n  /**\r\n   * @dev Stores all contracts already created.\r\n   */\r\n\taddress[] public contracts;\r\n\r\n  /**\r\n   * @dev Stores the address of fee contract\r\n   */\r\n  address public feeContract;\r\n\r\n  /**\r\n   * @dev Stores the minimum number of blocks to wait in case of danger of front running\r\n   */\r\n  uint8 public numberOfBlocksToPreventFrontRunning;\r\n\r\n  /**\r\n   * @dev Event to inform the creation of a new Tradeable  Wallet   \r\n   */ \r\n \tevent NewTradeableWallet(address addr);\r\n\r\n  /**\r\n   * @dev Assure that only the owner can invoke a function.   \r\n   */\r\n\tmodifier onlyOwner { \r\n\t\trequire(msg.sender == owner); \t\r\n\t\t_; \t\r\n\t}\t\t\r\n\t\r\n  /**\r\n   * @dev Safe mechanism check and pause the function in case of some undesirable situation (circuit breaker).   \r\n   */\r\n\tmodifier stopInEmergency { \r\n\t\trequire(!stopped); \r\n\t\t_; \r\n\t}\r\n\r\n\r\n  /**\r\n   * @dev Create a new contract. \r\n   * The owner is going to be msg.sender.   \r\n   */\r\n\tconstructor (uint8 newNumberOfBlocksToPreventFrontRunning, uint8 denominatorFee, address feeAddress) public {\r\n\t\towner = msg.sender;\r\n    numberOfBlocksToPreventFrontRunning = newNumberOfBlocksToPreventFrontRunning;\r\n    feeContract = new FeeContract(owner, denominatorFee, feeAddress);\r\n\t}\r\n\r\n  /**\r\n   * @dev Kill the contract creator.\r\n   * It can only be called by the owner.   \r\n   */\r\n\tfunction kill() public onlyOwner {\r\n\t\tselfdestruct(owner);\r\n\t}\r\n\r\n  /**\r\n   * @dev create a new Tradeable Contract, stores its reference and emit an event with the same info \r\n   * @return subcontractAddr the address of the create contract.\r\n   */\r\n\tfunction createTradeableContract() public stopInEmergency returns(address subcontractAddr) {\r\n\t\tITradeableContract tc = new TradeableContract(msg.sender, feeContract, 240); \r\n\t\tcontracts.push(tc);\r\n\t\temit NewTradeableWallet(address(tc));\r\n\t\treturn tc;\t\t\r\n\t}\r\n\r\n  /**\r\n   * @dev Useful to enable a pause in the creation of new Tradeable Contracts. \r\n   * It can only be called by the owner.\r\n   * @param b If true, it is not possible to create new Tradeable Contracts.\r\n   */\r\n\tfunction setCircuitBreaker (bool b) public onlyOwner {\r\n\t\tstopped = b;\r\n\t} \t\r\n\r\n\tfunction setNumberOfBlocksToPreventFrontRunning (uint8 n) public onlyOwner {\r\n\t\tnumberOfBlocksToPreventFrontRunning = n;\r\n\t} \t\r\n\r\n\tfunction getNumberOfBlocksToPreventFrontRunning () public view returns (uint8) {\r\n\t\treturn numberOfBlocksToPreventFrontRunning;\r\n\t} \t\r\n\r\n  /**\r\n   * @dev Returns the number of Tradeable Contract created. \r\n   * @return contractCount the number of Tradeable Contract created.\r\n   */\r\n\tfunction getContractCount() public view returns(uint contractCount) {\r\n\t\treturn contracts.length;\r\n\t}\r\n\r\n  /**\r\n   * @dev Returns the address the Tradeable Contract created on a specific index. \r\n   * @param index index of the desirable result\r\n   * @return the address of the desirable Tradeable contract or 0x0 (if not found)\r\n   */\r\n\tfunction getContractAt(uint index) public view returns (address) {\r\n\t\tif (index<contracts.length) {\r\n\t\t\treturn contracts[index];\r\n\t\t}\r\n\t\treturn 0x0;\r\n\t}\r\n\r\n  /**\r\n   * @dev Returns the owner of this contract.\r\n   * @return the owner of this contract.\r\n   */\r\n\tfunction getOwner() public view returns (address) {\r\n\t\treturn owner;\r\n\t}\r\n\r\n  function getFeeContractAddress() public view returns (address) {\r\n    return feeContract;\r\n  }\r\n\r\n}",
  "sourcePath": "C:\\workspace\\tradeable-wallet\\back-blockchain\\contracts\\ContractCreator.sol",
  "compiler": {
    "name": "solc",
    "version": "0.4.24+commit.e67f0147.Emscripten.clang"
  },
  "schemaVersion": "2.0.1",
  "updatedAt": "2018-11-08T23:44:17.753Z"
}