{
  "contractName": "ContractCalledInLowLevel_Mock",
  "abi": [
    {
      "inputs": [
        {
          "name": "newDepositDestinationAddress",
          "type": "address"
        }
      ],
      "payable": false,
      "stateMutability": "nonpayable",
      "type": "constructor"
    },
    {
      "constant": false,
      "inputs": [],
      "name": "deposit",
      "outputs": [],
      "payable": true,
      "stateMutability": "payable",
      "type": "function"
    }
  ],
  "bytecode": "0x608060405234801561001057600080fd5b5060405160208061016383398101806040528101908080519060200190929190505050806000806101000a81548173ffffffffffffffffffffffffffffffffffffffff021916908373ffffffffffffffffffffffffffffffffffffffff1602179055505060e1806100826000396000f300608060405260043610603f576000357c0100000000000000000000000000000000000000000000000000000000900463ffffffff168063d0e30db0146044575b600080fd5b604a604c565b005b6000809054906101000a900473ffffffffffffffffffffffffffffffffffffffff1673ffffffffffffffffffffffffffffffffffffffff166108fc349081150290604051600060405180830381858888f1935050505015801560b2573d6000803e3d6000fd5b505600a165627a7a7230582055e72c756f904c4e9c7dace0dd375c67b69456c82b7e8bac291d54e6c2bce3ee0029",
  "source": "pragma solidity ^0.4.23;\r\n\r\n/**\r\n * @title ContractCalledInLowLevel_Mock.\r\n */\r\ncontract ContractCalledInLowLevel_Mock {\r\n\r\n    address depositDestinationAddress;\r\n\r\n\tconstructor (address newDepositDestinationAddress) public {\r\n        depositDestinationAddress = newDepositDestinationAddress;\r\n\t}\r\n\r\n\r\n\tfunction deposit() public payable {\r\n\t\tdepositDestinationAddress.transfer(msg.value);\r\n\t}\r\n    \r\n\r\n\r\n\r\n}",
  "sourcePath": "C:\\workspace\\tradeable-wallet\\back-blockchain\\contracts\\ContractCalledInLowLevel_Mock.sol",
  "compiler": {
    "name": "solc",
    "version": "0.4.24+commit.e67f0147.Emscripten.clang"
  },
  "schemaVersion": "2.0.1",
  "updatedAt": "2018-11-04T04:09:50.630Z"
}