{
  "contractName": "ContractCreator",
  "abi": [
    {
      "constant": true,
      "inputs": [],
      "name": "feeContract",
      "outputs": [
        {
          "name": "",
          "type": "address"
        }
      ],
      "payable": false,
      "stateMutability": "view",
      "type": "function"
    },
    {
      "constant": true,
      "inputs": [
        {
          "name": "",
          "type": "uint256"
        }
      ],
      "name": "contracts",
      "outputs": [
        {
          "name": "",
          "type": "address"
        }
      ],
      "payable": false,
      "stateMutability": "view",
      "type": "function"
    },
    {
      "constant": true,
      "inputs": [],
      "name": "stopped",
      "outputs": [
        {
          "name": "",
          "type": "bool"
        }
      ],
      "payable": false,
      "stateMutability": "view",
      "type": "function"
    },
    {
      "constant": true,
      "inputs": [],
      "name": "owner",
      "outputs": [
        {
          "name": "",
          "type": "address"
        }
      ],
      "payable": false,
      "stateMutability": "view",
      "type": "function"
    },
    {
      "inputs": [
        {
          "name": "numberOfBlocksToPreventFrontRunningReceived",
          "type": "uint8"
        },
        {
          "name": "feeAddress",
          "type": "address"
        }
      ],
      "payable": false,
      "stateMutability": "nonpayable",
      "type": "constructor"
    },
    {
      "anonymous": false,
      "inputs": [
        {
          "indexed": false,
          "name": "addr",
          "type": "address"
        }
      ],
      "name": "NewTradeableWallet",
      "type": "event"
    },
    {
      "constant": false,
      "inputs": [],
      "name": "kill",
      "outputs": [],
      "payable": false,
      "stateMutability": "nonpayable",
      "type": "function"
    },
    {
      "constant": false,
      "inputs": [],
      "name": "createTradeableContract",
      "outputs": [
        {
          "name": "subcontractAddr",
          "type": "address"
        }
      ],
      "payable": false,
      "stateMutability": "nonpayable",
      "type": "function"
    },
    {
      "constant": false,
      "inputs": [
        {
          "name": "b",
          "type": "bool"
        }
      ],
      "name": "setCircuitBreaker",
      "outputs": [],
      "payable": false,
      "stateMutability": "nonpayable",
      "type": "function"
    },
    {
      "constant": true,
      "inputs": [],
      "name": "getContractCount",
      "outputs": [
        {
          "name": "contractCount",
          "type": "uint256"
        }
      ],
      "payable": false,
      "stateMutability": "view",
      "type": "function"
    },
    {
      "constant": true,
      "inputs": [
        {
          "name": "index",
          "type": "uint256"
        }
      ],
      "name": "getContractAt",
      "outputs": [
        {
          "name": "",
          "type": "address"
        }
      ],
      "payable": false,
      "stateMutability": "view",
      "type": "function"
    },
    {
      "constant": true,
      "inputs": [],
      "name": "getOwner",
      "outputs": [
        {
          "name": "",
          "type": "address"
        }
      ],
      "payable": false,
      "stateMutability": "view",
      "type": "function"
    }
  ],
  "bytecode": "0x608060405260008060006101000a81548160ff02191690831515021790555034801561002a57600080fd5b5060405160408061365e833981018060405281019080805190602001909291908051906020019092919050505033600060016101000a81548173ffffffffffffffffffffffffffffffffffffffff021916908373ffffffffffffffffffffffffffffffffffffffff160217905550600060019054906101000a900473ffffffffffffffffffffffffffffffffffffffff1682826100c561019f565b808473ffffffffffffffffffffffffffffffffffffffff1673ffffffffffffffffffffffffffffffffffffffff1681526020018360ff1660ff1681526020018273ffffffffffffffffffffffffffffffffffffffff1673ffffffffffffffffffffffffffffffffffffffff1681526020019350505050604051809103906000f080158015610157573d6000803e3d6000fd5b50600260006101000a81548173ffffffffffffffffffffffffffffffffffffffff021916908373ffffffffffffffffffffffffffffffffffffffff16021790555050506101af565b604051610b5280612b0c83390190565b61294e806101be6000396000f3006080604052600436106100a4576000357c0100000000000000000000000000000000000000000000000000000000900463ffffffff16806306e29712146100a957806341c0e1b5146101005780634250644914610117578063474da79a1461014657806375f12b21146101b357806379b0676b146101e2578063893d20e81461024f5780638da5cb5b146102a65780639399869d146102fd578063b5e751df14610328575b600080fd5b3480156100b557600080fd5b506100be61037f565b604051808273ffffffffffffffffffffffffffffffffffffffff1673ffffffffffffffffffffffffffffffffffffffff16815260200191505060405180910390f35b34801561010c57600080fd5b506101156103a5565b005b34801561012357600080fd5b5061014460048036038101908080351515906020019092919050505061043c565b005b34801561015257600080fd5b50610171600480360381019080803590602001909291905050506104b4565b604051808273ffffffffffffffffffffffffffffffffffffffff1673ffffffffffffffffffffffffffffffffffffffff16815260200191505060405180910390f35b3480156101bf57600080fd5b506101c86104f2565b604051808215151515815260200191505060405180910390f35b3480156101ee57600080fd5b5061020d60048036038101908080359060200190929190505050610504565b604051808273ffffffffffffffffffffffffffffffffffffffff1673ffffffffffffffffffffffffffffffffffffffff16815260200191505060405180910390f35b34801561025b57600080fd5b5061026461055e565b604051808273ffffffffffffffffffffffffffffffffffffffff1673ffffffffffffffffffffffffffffffffffffffff16815260200191505060405180910390f35b3480156102b257600080fd5b506102bb610587565b604051808273ffffffffffffffffffffffffffffffffffffffff1673ffffffffffffffffffffffffffffffffffffffff16815260200191505060405180910390f35b34801561030957600080fd5b506103126105ad565b6040518082815260200191505060405180910390f35b34801561033457600080fd5b5061033d6105ba565b604051808273ffffffffffffffffffffffffffffffffffffffff1673ffffffffffffffffffffffffffffffffffffffff16815260200191505060405180910390f35b600260009054906101000a900473ffffffffffffffffffffffffffffffffffffffff1681565b600060019054906101000a900473ffffffffffffffffffffffffffffffffffffffff1673ffffffffffffffffffffffffffffffffffffffff163373ffffffffffffffffffffffffffffffffffffffff1614151561040157600080fd5b600060019054906101000a900473ffffffffffffffffffffffffffffffffffffffff1673ffffffffffffffffffffffffffffffffffffffff16ff5b600060019054906101000a900473ffffffffffffffffffffffffffffffffffffffff1673ffffffffffffffffffffffffffffffffffffffff163373ffffffffffffffffffffffffffffffffffffffff1614151561049857600080fd5b806000806101000a81548160ff02191690831515021790555050565b6001818154811015156104c357fe5b906000526020600020016000915054906101000a900473ffffffffffffffffffffffffffffffffffffffff1681565b6000809054906101000a900460ff1681565b60006001805490508210156105545760018281548110151561052257fe5b9060005260206000200160009054906101000a900473ffffffffffffffffffffffffffffffffffffffff169050610559565b600090505b919050565b60008060019054906101000a900473ffffffffffffffffffffffffffffffffffffffff16905090565b600060019054906101000a900473ffffffffffffffffffffffffffffffffffffffff1681565b6000600180549050905090565b6000806000809054906101000a900460ff161515156105d857600080fd5b33600260009054906101000a900473ffffffffffffffffffffffffffffffffffffffff1660f0610606610768565b808473ffffffffffffffffffffffffffffffffffffffff1673ffffffffffffffffffffffffffffffffffffffff1681526020018373ffffffffffffffffffffffffffffffffffffffff1673ffffffffffffffffffffffffffffffffffffffff1681526020018260ff1681526020019350505050604051809103906000f080158015610695573d6000803e3d6000fd5b50905060018190806001815401808255809150509060018203906000526020600020016000909192909190916101000a81548173ffffffffffffffffffffffffffffffffffffffff021916908373ffffffffffffffffffffffffffffffffffffffff160217905550507fcf7d6721918b3164d3679248fb2d841009588e2d7dde6361beceade182a24f4081604051808273ffffffffffffffffffffffffffffffffffffffff1673ffffffffffffffffffffffffffffffffffffffff16815260200191505060405180910390a18091505090565b6040516121aa80610779833901905600608060405234801561001057600080fd5b506040516060806121aa833981018060405281019080805190602001909291908051906020019092919080519060200190929190505050826000806101000a81548173ffffffffffffffffffffffffffffffffffffffff021916908373ffffffffffffffffffffffffffffffffffffffff16021790555081600360006101000a81548173ffffffffffffffffffffffffffffffffffffffff021916908373ffffffffffffffffffffffffffffffffffffffff16021790555080600360146101000a81548160ff021916908360ff1602179055507f09f86d61eb5d6904c1fa8e5f071f171ec90eccc6e0a7b61d563a7d693db815f660008060009054906101000a900473ffffffffffffffffffffffffffffffffffffffff16604051808373ffffffffffffffffffffffffffffffffffffffff1681526020018273ffffffffffffffffffffffffffffffffffffffff1673ffffffffffffffffffffffffffffffffffffffff1681526020019250505060405180910390a1505050612012806101986000396000f30060806040526004361061013e576000357c0100000000000000000000000000000000000000000000000000000000900463ffffffff16806306e29712146101b557806307cd25891461020c5780631221c8111461023b5780631db9ae6e14610268578063215238ac146102de57806343ff45641461036e5780634af1c8a9146103a9578063521568bd146103da5780635d6eb6ad146104055780636c49286e146104525780637ef4cb1f146104d757806382ef42ec146104ee5780638389454814610519578063893d20e814610570578063897fbabf146105c75780638da5cb5b14610657578063a60f7a38146106ae578063adff0b3f14610713578063b17fd1051461073e578063c0ee0b8a14610795578063c7f7bd1d146107fa578063cb7c86b214610849578063ea46193e14610853578063fdafbf321461087e575b60008036905014151561015057600080fd5b7fbf1867699ca82c037f48dd4280d187dc55f63fff3103b818cfcf938891ec9b1d33604051808273ffffffffffffffffffffffffffffffffffffffff1673ffffffffffffffffffffffffffffffffffffffff16815260200191505060405180910390a1005b3480156101c157600080fd5b506101ca6108af565b604051808273ffffffffffffffffffffffffffffffffffffffff1673ffffffffffffffffffffffffffffffffffffffff16815260200191505060405180910390f35b34801561021857600080fd5b506102216108d5565b604051808215151515815260200191505060405180910390f35b34801561024757600080fd5b50610266600480360381019080803590602001909291905050506108e8565b005b34801561027457600080fd5b506102dc600480360381019080803573ffffffffffffffffffffffffffffffffffffffff1690602001909291908035906020019092919080357bffffffffffffffffffffffffffffffffffffffffffffffffffffffff19169060200190929190505050610a7a565b005b3480156102ea57600080fd5b506102f3610c12565b6040518080602001828103825283818151815260200191508051906020019080838360005b83811015610333578082015181840152602081019050610318565b50505050905090810190601f1680156103605780820380516001836020036101000a031916815260200191505b509250505060405180910390f35b34801561037a57600080fd5b506103a7600480360381019080803590602001908201803590602001919091929391929390505050610cb0565b005b3480156103b557600080fd5b506103be610d21565b604051808260ff1660ff16815260200191505060405180910390f35b3480156103e657600080fd5b506103ef610de9565b6040518082815260200191505060405180910390f35b34801561041157600080fd5b50610450600480360381019080803573ffffffffffffffffffffffffffffffffffffffff16906020019092919080359060200190929190505050610e5f565b005b34801561045e57600080fd5b506104bd600480360381019080803573ffffffffffffffffffffffffffffffffffffffff169060200190929190803573ffffffffffffffffffffffffffffffffffffffff16906020019092919080359060200190929190505050611027565b604051808215151515815260200191505060405180910390f35b3480156104e357600080fd5b506104ec611235565b005b3480156104fa57600080fd5b50610503611356565b6040518082815260200191505060405180910390f35b34801561052557600080fd5b5061055a600480360381019080803573ffffffffffffffffffffffffffffffffffffffff16906020019092919050505061135c565b6040518082815260200191505060405180910390f35b34801561057c57600080fd5b5061058561143b565b604051808273ffffffffffffffffffffffffffffffffffffffff1673ffffffffffffffffffffffffffffffffffffffff16815260200191505060405180910390f35b3480156105d357600080fd5b506105dc611464565b6040518080602001828103825283818151815260200191508051906020019080838360005b8381101561061c578082015181840152602081019050610601565b50505050905090810190601f1680156106495780820380516001836020036101000a031916815260200191505b509250505060405180910390f35b34801561066357600080fd5b5061066c611506565b604051808273ffffffffffffffffffffffffffffffffffffffff1673ffffffffffffffffffffffffffffffffffffffff16815260200191505060405180910390f35b3480156106ba57600080fd5b506106f9600480360381019080803573ffffffffffffffffffffffffffffffffffffffff1690602001909291908035906020019092919050505061152b565b604051808215151515815260200191505060405180910390f35b34801561071f57600080fd5b5061072861177a565b6040518082815260200191505060405180910390f35b34801561074a57600080fd5b5061079360048036038101908080356fffffffffffffffffffffffffffffffff169060200190929190803590602001908201803590602001919091929391929390505050611789565b005b3480156107a157600080fd5b506107f8600480360381019080803573ffffffffffffffffffffffffffffffffffffffff1690602001909291908035906020019092919080359060200190820180359060200191909192939192939050505061190a565b005b34801561080657600080fd5b5061080f611910565b60405180826fffffffffffffffffffffffffffffffff166fffffffffffffffffffffffffffffffff16815260200191505060405180910390f35b610851611932565b005b34801561085f57600080fd5b50610868611e17565b6040518082815260200191505060405180910390f35b34801561088a57600080fd5b50610893611e36565b604051808260ff1660ff16815260200191505060405180910390f35b600360009054906101000a900473ffffffffffffffffffffffffffffffffffffffff1681565b600160109054906101000a900460ff1681565b6000809054906101000a900473ffffffffffffffffffffffffffffffffffffffff1673ffffffffffffffffffffffffffffffffffffffff163373ffffffffffffffffffffffffffffffffffffffff1614151561094357600080fd5b600061094d611e49565b14151561095957600080fd5b803073ffffffffffffffffffffffffffffffffffffffff16311015151561097f57600080fd5b600115157faac3f38d160a370c9036e0523257f13f774eb02a325abb4d94f4892409fe07836000809054906101000a900473ffffffffffffffffffffffffffffffffffffffff1683604051808373ffffffffffffffffffffffffffffffffffffffff1673ffffffffffffffffffffffffffffffffffffffff1681526020018281526020019250505060405180910390a26000809054906101000a900473ffffffffffffffffffffffffffffffffffffffff1673ffffffffffffffffffffffffffffffffffffffff166108fc829081150290604051600060405180830381858888f19350505050158015610a76573d6000803e3d6000fd5b5050565b6000809054906101000a900473ffffffffffffffffffffffffffffffffffffffff1673ffffffffffffffffffffffffffffffffffffffff163373ffffffffffffffffffffffffffffffffffffffff16141515610ad557600080fd5b6000610adf611e49565b141515610aeb57600080fd5b600073ffffffffffffffffffffffffffffffffffffffff168373ffffffffffffffffffffffffffffffffffffffff1614151515610b2757600080fd5b3073ffffffffffffffffffffffffffffffffffffffff168373ffffffffffffffffffffffffffffffffffffffff1614151515610b6257600080fd5b813073ffffffffffffffffffffffffffffffffffffffff163110151515610b8857600080fd5b8273ffffffffffffffffffffffffffffffffffffffff1682827c01000000000000000000000000000000000000000000000000000000009004906040518263ffffffff167c010000000000000000000000000000000000000000000000000000000002815260040160006040518083038185885af193505050501515610c0d57600080fd5b505050565b60028054600181600116156101000203166002900480601f016020809104026020016040519081016040528092919081815260200182805460018160011615610100020316600290048015610ca85780601f10610c7d57610100808354040283529160200191610ca8565b820191906000526020600020905b815481529060010190602001808311610c8b57829003601f168201915b505050505081565b6000809054906101000a900473ffffffffffffffffffffffffffffffffffffffff1673ffffffffffffffffffffffffffffffffffffffff163373ffffffffffffffffffffffffffffffffffffffff16141515610d0b57600080fd5b818160029190610d1c929190611f41565b505050565b6000600360009054906101000a900473ffffffffffffffffffffffffffffffffffffffff1673ffffffffffffffffffffffffffffffffffffffff16634af1c8a96040518163ffffffff167c0100000000000000000000000000000000000000000000000000000000028152600401602060405180830381600087803b158015610da957600080fd5b505af1158015610dbd573d6000803e3d6000fd5b505050506040513d6020811015610dd357600080fd5b8101908080519060200190929190505050905090565b6000600160109054906101000a900460ff1615610e3857600160009054906101000a90046fffffffffffffffffffffffffffffffff166fffffffffffffffffffffffffffffffff169050610e5c565b7fffffffffffffffffffffffffffffffffffffffffffffffffffffffffffffffff90505b90565b6000809054906101000a900473ffffffffffffffffffffffffffffffffffffffff1673ffffffffffffffffffffffffffffffffffffffff163373ffffffffffffffffffffffffffffffffffffffff16141515610eba57600080fd5b6000610ec4611e49565b141515610ed057600080fd5b600073ffffffffffffffffffffffffffffffffffffffff168273ffffffffffffffffffffffffffffffffffffffff1614151515610f0c57600080fd5b3073ffffffffffffffffffffffffffffffffffffffff168273ffffffffffffffffffffffffffffffffffffffff1614151515610f4757600080fd5b803073ffffffffffffffffffffffffffffffffffffffff163110151515610f6d57600080fd5b600015157faac3f38d160a370c9036e0523257f13f774eb02a325abb4d94f4892409fe07838383604051808373ffffffffffffffffffffffffffffffffffffffff1673ffffffffffffffffffffffffffffffffffffffff1681526020018281526020019250505060405180910390a28173ffffffffffffffffffffffffffffffffffffffff166108fc829081150290604051600060405180830381858888f19350505050158015611022573d6000803e3d6000fd5b505050565b6000806000809054906101000a900473ffffffffffffffffffffffffffffffffffffffff1673ffffffffffffffffffffffffffffffffffffffff163373ffffffffffffffffffffffffffffffffffffffff1614151561108557600080fd5b600061108f611e49565b14151561109b57600080fd5b8473ffffffffffffffffffffffffffffffffffffffff1663a9059cbb85856040518363ffffffff167c0100000000000000000000000000000000000000000000000000000000028152600401808373ffffffffffffffffffffffffffffffffffffffff1673ffffffffffffffffffffffffffffffffffffffff16815260200182815260200192505050602060405180830381600087803b15801561113e57600080fd5b505af1158015611152573d6000803e3d6000fd5b505050506040513d602081101561116857600080fd5b81019080805190602001909291905050509050600015157faeceea4a0cf1f3d21fe26bb8ba350edc1eadf24df06e0166857a4127b65aad0a86868685604051808573ffffffffffffffffffffffffffffffffffffffff1673ffffffffffffffffffffffffffffffffffffffff1681526020018473ffffffffffffffffffffffffffffffffffffffff1673ffffffffffffffffffffffffffffffffffffffff1681526020018381526020018215151515815260200194505050505060405180910390a2809150509392505050565b6000809054906101000a900473ffffffffffffffffffffffffffffffffffffffff1673ffffffffffffffffffffffffffffffffffffffff163373ffffffffffffffffffffffffffffffffffffffff1614151561129057600080fd5b611298611ec2565b600015157f6a7cf879f8e37cc344a869ab29c3812a797b256761624c25b4cc30ee89901efe6000809054906101000a900473ffffffffffffffffffffffffffffffffffffffff1630604051808373ffffffffffffffffffffffffffffffffffffffff1673ffffffffffffffffffffffffffffffffffffffff1681526020018273ffffffffffffffffffffffffffffffffffffffff1673ffffffffffffffffffffffffffffffffffffffff1681526020019250505060405180910390a2565b60045481565b60008173ffffffffffffffffffffffffffffffffffffffff166370a08231306040518263ffffffff167c0100000000000000000000000000000000000000000000000000000000028152600401808273ffffffffffffffffffffffffffffffffffffffff1673ffffffffffffffffffffffffffffffffffffffff168152602001915050602060405180830381600087803b1580156113f957600080fd5b505af115801561140d573d6000803e3d6000fd5b505050506040513d602081101561142357600080fd5b81019080805190602001909291905050509050919050565b60008060009054906101000a900473ffffffffffffffffffffffffffffffffffffffff16905090565b606060028054600181600116156101000203166002900480601f0160208091040260200160405190810160405280929190818152602001828054600181600116156101000203166002900480156114fc5780601f106114d1576101008083540402835291602001916114fc565b820191906000526020600020905b8154815290600101906020018083116114df57829003601f168201915b5050505050905090565b6000809054906101000a900473ffffffffffffffffffffffffffffffffffffffff1681565b6000806000809054906101000a900473ffffffffffffffffffffffffffffffffffffffff1673ffffffffffffffffffffffffffffffffffffffff163373ffffffffffffffffffffffffffffffffffffffff1614151561158957600080fd5b6000611593611e49565b14151561159f57600080fd5b8373ffffffffffffffffffffffffffffffffffffffff1663a9059cbb6000809054906101000a900473ffffffffffffffffffffffffffffffffffffffff16856040518363ffffffff167c0100000000000000000000000000000000000000000000000000000000028152600401808373ffffffffffffffffffffffffffffffffffffffff1673ffffffffffffffffffffffffffffffffffffffff16815260200182815260200192505050602060405180830381600087803b15801561166357600080fd5b505af1158015611677573d6000803e3d6000fd5b505050506040513d602081101561168d57600080fd5b81019080805190602001909291905050509050600115157faeceea4a0cf1f3d21fe26bb8ba350edc1eadf24df06e0166857a4127b65aad0a856000809054906101000a900473ffffffffffffffffffffffffffffffffffffffff168685604051808573ffffffffffffffffffffffffffffffffffffffff1673ffffffffffffffffffffffffffffffffffffffff1681526020018473ffffffffffffffffffffffffffffffffffffffff1673ffffffffffffffffffffffffffffffffffffffff1681526020018381526020018215151515815260200194505050505060405180910390a28091505092915050565b6000611784611e49565b905090565b6000809054906101000a900473ffffffffffffffffffffffffffffffffffffffff1673ffffffffffffffffffffffffffffffffffffffff163373ffffffffffffffffffffffffffffffffffffffff161415156117e457600080fd5b60018060106101000a81548160ff02191690831515021790555082600160006101000a8154816fffffffffffffffffffffffffffffffff02191690836fffffffffffffffffffffffffffffffff160217905550818160029190611848929190611f41565b50600115157f6a7cf879f8e37cc344a869ab29c3812a797b256761624c25b4cc30ee89901efe6000809054906101000a900473ffffffffffffffffffffffffffffffffffffffff1630604051808373ffffffffffffffffffffffffffffffffffffffff1673ffffffffffffffffffffffffffffffffffffffff1681526020018273ffffffffffffffffffffffffffffffffffffffff1673ffffffffffffffffffffffffffffffffffffffff1681526020019250505060405180910390a2505050565b50505050565b600160009054906101000a90046fffffffffffffffffffffffffffffffff1681565b60008060008060011515600160109054906101000a900460ff16151514151561195a57600080fd5b600160009054906101000a90046fffffffffffffffffffffffffffffffff166fffffffffffffffffffffffffffffffff16341015151561199957600080fd5b6000809054906101000a900473ffffffffffffffffffffffffffffffffffffffff169350336000806101000a81548173ffffffffffffffffffffffffffffffffffffffff021916908373ffffffffffffffffffffffffffffffffffffffff1602179055507f09f86d61eb5d6904c1fa8e5f071f171ec90eccc6e0a7b61d563a7d693db815f6846000809054906101000a900473ffffffffffffffffffffffffffffffffffffffff16604051808373ffffffffffffffffffffffffffffffffffffffff1673ffffffffffffffffffffffffffffffffffffffff1681526020018273ffffffffffffffffffffffffffffffffffffffff1673ffffffffffffffffffffffffffffffffffffffff1681526020019250505060405180910390a1611abd611ec2565b600360009054906101000a900473ffffffffffffffffffffffffffffffffffffffff1673ffffffffffffffffffffffffffffffffffffffff1663854bf6a16040518163ffffffff167c0100000000000000000000000000000000000000000000000000000000028152600401602060405180830381600087803b158015611b4357600080fd5b505af1158015611b57573d6000803e3d6000fd5b505050506040513d6020811015611b6d57600080fd5b81019080805190602001909291905050509250600360009054906101000a900473ffffffffffffffffffffffffffffffffffffffff1673ffffffffffffffffffffffffffffffffffffffff1663745598b8600160009054906101000a90046fffffffffffffffffffffffffffffffff166000809054906101000a900473ffffffffffffffffffffffffffffffffffffffff166040518363ffffffff167c010000000000000000000000000000000000000000000000000000000002815260040180836fffffffffffffffffffffffffffffffff166fffffffffffffffffffffffffffffffff1681526020018273ffffffffffffffffffffffffffffffffffffffff1673ffffffffffffffffffffffffffffffffffffffff16815260200192505050602060405180830381600087803b158015611ca857600080fd5b505af1158015611cbc573d6000803e3d6000fd5b505050506040513d6020811015611cd257600080fd5b8101908080519060200190929190505050915081600160009054906101000a90046fffffffffffffffffffffffffffffffff160390506000600160006101000a8154816fffffffffffffffffffffffffffffffff02191690836fffffffffffffffffffffffffffffffff1602179055506000826fffffffffffffffffffffffffffffffff16141515611db8578273ffffffffffffffffffffffffffffffffffffffff166108fc836fffffffffffffffffffffffffffffffff169081150290604051600060405180830381858888f19350505050158015611db6573d6000803e3d6000fd5b505b8373ffffffffffffffffffffffffffffffffffffffff166108fc826fffffffffffffffffffffffffffffffff169081150290604051600060405180830381858888f19350505050158015611e10573d6000803e3d6000fd5b5050505050565b60003073ffffffffffffffffffffffffffffffffffffffff1631905090565b600360149054906101000a900460ff1681565b6000600160109054906101000a900460ff16151515611e6757600080fd5b60006004541415611e7b5760009050611ebf565b600360149054906101000a900460ff1660ff166004540143101515611ea35760009050611ebf565b43600360149054906101000a900460ff1660ff16600454010390505b90565b6000809054906101000a900473ffffffffffffffffffffffffffffffffffffffff1673ffffffffffffffffffffffffffffffffffffffff163373ffffffffffffffffffffffffffffffffffffffff16141515611f1d57600080fd5b6000600160106101000a81548160ff02191690831515021790555043600481905550565b828054600181600116156101000203166002900490600052602060002090601f016020900481019282601f10611f8257803560ff1916838001178555611fb0565b82800160010185558215611fb0579182015b82811115611faf578235825591602001919060010190611f94565b5b509050611fbd9190611fc1565b5090565b611fe391905b80821115611fdf576000816000905550600101611fc7565b5090565b905600a165627a7a7230582096f957c495e41ccb497ba16da302e7f8ef02d828115f6e12bf6c113ade0fa9610029a165627a7a723058204ff7fd24c55a392ac6b679754051993065f24c7106c9b6f1594f8125d703278b0029608060405234801561001057600080fd5b50604051606080610b5283398101806040528101908080519060200190929190805190602001909291908051906020019092919050505060228260ff161015151561005a57600080fd5b82600260006101000a81548173ffffffffffffffffffffffffffffffffffffffff021916908373ffffffffffffffffffffffffffffffffffffffff160217905550816000806101000a81548160ff021916908360ff16021790555080600060016101000a81548173ffffffffffffffffffffffffffffffffffffffff021916908373ffffffffffffffffffffffffffffffffffffffff160217905550505050610a4a806101086000396000f3006080604052600436106100af576000357c0100000000000000000000000000000000000000000000000000000000900463ffffffff1680631a889ee0146100b45780631f2be9c9146100e457806326f8a07a146101155780634af1c8a914610158578063745598b814610189578063854bf6a1146102205780638a9ef1f8146102775780638da5cb5b146102e4578063b11ad2591461033b578063cedc11c714610398578063d0686deb146103db575b600080fd5b3480156100c057600080fd5b506100e2600480360381019080803560ff16906020019092919050505061041e565b005b3480156100f057600080fd5b506100f96104aa565b604051808260ff1660ff16815260200191505060405180910390f35b34801561012157600080fd5b50610156600480360381019080803573ffffffffffffffffffffffffffffffffffffffff1690602001909291905050506104bc565b005b34801561016457600080fd5b5061016d61055c565b604051808260ff1660ff16815260200191505060405180910390f35b34801561019557600080fd5b506101e660048036038101908080356fffffffffffffffffffffffffffffffff169060200190929190803573ffffffffffffffffffffffffffffffffffffffff169060200190929190505050610572565b60405180826fffffffffffffffffffffffffffffffff166fffffffffffffffffffffffffffffffff16815260200191505060405180910390f35b34801561022c57600080fd5b506102356105ee565b604051808273ffffffffffffffffffffffffffffffffffffffff1673ffffffffffffffffffffffffffffffffffffffff16815260200191505060405180910390f35b34801561028357600080fd5b506102a260048036038101908080359060200190929190505050610617565b604051808273ffffffffffffffffffffffffffffffffffffffff1673ffffffffffffffffffffffffffffffffffffffff16815260200191505060405180910390f35b3480156102f057600080fd5b506102f961066d565b604051808273ffffffffffffffffffffffffffffffffffffffff1673ffffffffffffffffffffffffffffffffffffffff16815260200191505060405180910390f35b34801561034757600080fd5b5061037c600480360381019080803573ffffffffffffffffffffffffffffffffffffffff169060200190929190505050610693565b604051808260000b60000b815260200191505060405180910390f35b3480156103a457600080fd5b506103d9600480360381019080803573ffffffffffffffffffffffffffffffffffffffff169060200190929190505050610759565b005b3480156103e757600080fd5b5061041c600480360381019080803573ffffffffffffffffffffffffffffffffffffffff16906020019092919050505061081e565b005b600260009054906101000a900473ffffffffffffffffffffffffffffffffffffffff1673ffffffffffffffffffffffffffffffffffffffff163373ffffffffffffffffffffffffffffffffffffffff1614151561047a57600080fd5b60228160ff161015151561048d57600080fd5b806000806101000a81548160ff021916908360ff16021790555050565b6000809054906101000a900460ff1681565b600260009054906101000a900473ffffffffffffffffffffffffffffffffffffffff1673ffffffffffffffffffffffffffffffffffffffff163373ffffffffffffffffffffffffffffffffffffffff1614151561051857600080fd5b80600060016101000a81548173ffffffffffffffffffffffffffffffffffffffff021916908373ffffffffffffffffffffffffffffffffffffffff16021790555050565b60008060009054906101000a900460ff16905090565b60008061057e83610693565b90507fffffffffffffffffffffffffffffffffffffffffffffffffffffffffffffffff8160000b1415156105b557600091506105e7565b6000809054906101000a900460ff1660ff16846fffffffffffffffffffffffffffffffff168115156105e357fe5b0491505b5092915050565b60008060019054906101000a900473ffffffffffffffffffffffffffffffffffffffff16905090565b60006001805490508210151561062c57600080fd5b60018281548110151561063b57fe5b9060005260206000200160009054906101000a900473ffffffffffffffffffffffffffffffffffffffff169050919050565b600260009054906101000a900473ffffffffffffffffffffffffffffffffffffffff1681565b60008060007fffffffffffffffffffffffffffffffffffffffffffffffffffffffffffffffff9150600090505b60018054905081101561074f578373ffffffffffffffffffffffffffffffffffffffff166001828154811015156106f357fe5b9060005260206000200160009054906101000a900473ffffffffffffffffffffffffffffffffffffffff1673ffffffffffffffffffffffffffffffffffffffff1614156107425780915061074f565b80806001019150506106c0565b8192505050919050565b600260009054906101000a900473ffffffffffffffffffffffffffffffffffffffff1673ffffffffffffffffffffffffffffffffffffffff163373ffffffffffffffffffffffffffffffffffffffff161415156107b557600080fd5b60018190806001815401808255809150509060018203906000526020600020016000909192909190916101000a81548173ffffffffffffffffffffffffffffffffffffffff021916908373ffffffffffffffffffffffffffffffffffffffff1602179055505050565b600080600260009054906101000a900473ffffffffffffffffffffffffffffffffffffffff1673ffffffffffffffffffffffffffffffffffffffff163373ffffffffffffffffffffffffffffffffffffffff1614151561087d57600080fd5b61088683610693565b91507fffffffffffffffffffffffffffffffffffffffffffffffffffffffffffffffff8260000b141515156108ba57600080fd5b8160000b90505b60018080549050038110156109705760018082018154811015156108e157fe5b9060005260206000200160009054906101000a900473ffffffffffffffffffffffffffffffffffffffff1660018281548110151561091b57fe5b9060005260206000200160006101000a81548173ffffffffffffffffffffffffffffffffffffffff021916908373ffffffffffffffffffffffffffffffffffffffff16021790555080806001019150506108c1565b60018080805490500381548110151561098557fe5b9060005260206000200160006101000a81549073ffffffffffffffffffffffffffffffffffffffff021916905560018054809190600190036109c791906109cd565b50505050565b8154818355818111156109f4578183600052602060002091820191016109f391906109f9565b5b505050565b610a1b91905b80821115610a175760008160009055506001016109ff565b5090565b905600a165627a7a723058201645cfee168fbb3ddad6115eebcc50772c171a126708d48d76a9fcc1e54e64040029",
  "source": "pragma solidity ^0.4.23;\r\n\r\nimport \"./TradeableContract.sol\";\r\nimport \"./ITradeableContract.sol\";\r\nimport \"./FeeContract.sol\";\r\n\r\n/**\r\n * @title ContractCreator.\r\n * @dev Creator of Tradeable Wallet contracts. It is also a repository of Tradeable Wallet addresses.\r\n */\r\ncontract ContractCreator {\r\n\r\n  /**\r\n   * @dev Stores the information if the some functions should be paused in case of some undesirable situation (circuit breaker).   \r\n   */\r\n\tbool public stopped = false;\r\n\t\r\n  /**\r\n   * @dev Owner of this contract.   \r\n   */\r\n\taddress public owner;\t\r\n\r\n  /**\r\n   * @dev Stores all contracts already created.\r\n   */\r\n\taddress[] public contracts;\r\n\r\n  /**\r\n   * @dev Stores the address of fee contract\r\n   */\r\n  address public feeContract;\r\n\r\n  /**\r\n   * @dev Event to inform the creation of a new Tradeable  Wallet   \r\n   */ \r\n \tevent NewTradeableWallet(address addr);\r\n\r\n  /**\r\n   * @dev Assure that only the owner can invoke a function.   \r\n   */\r\n\tmodifier onlyOwner { \r\n\t\trequire(msg.sender == owner); \t\r\n\t\t_; \t\r\n\t}\t\t\r\n\t\r\n  /**\r\n   * @dev Safe mechanism check and pause the function in case of some undesirable situation (circuit breaker).   \r\n   */\r\n\tmodifier stopInEmergency { \r\n\t\trequire(!stopped); \r\n\t\t_; \r\n\t}\r\n\r\n  /**\r\n   * @dev Create a new contract. \r\n   * The owner is going to be msg.sender.   \r\n   */\r\n\tconstructor (uint8 numberOfBlocksToPreventFrontRunningReceived, address feeAddress) public {\r\n\t\towner = msg.sender;\r\n    feeContract = new FeeContract(owner,numberOfBlocksToPreventFrontRunningReceived, feeAddress);\r\n\t}\r\n\r\n  /**\r\n   * @dev Kill the contract creator.\r\n   * It can only be called by the owner.   \r\n   */\r\n\tfunction kill() public onlyOwner {\r\n\t\tselfdestruct(owner);\r\n\t}\r\n\r\n  /**\r\n   * @dev create a new Tradeable Contract, stores its reference and emit an event with the same info \r\n   * @return subcontractAddr the address of the create contract.\r\n   */\r\n\tfunction createTradeableContract() public stopInEmergency returns(address subcontractAddr) {\r\n\t\tITradeableContract tc = new TradeableContract(msg.sender, feeContract, 240); \r\n\t\tcontracts.push(tc);\r\n\t\temit NewTradeableWallet(address(tc));\r\n\t\treturn tc;\t\t\r\n\t}\r\n\r\n  /**\r\n   * @dev Useful to enable a pause in the creation of new Tradeable Contracts. \r\n   * It can only be called by the owner.\r\n   * @param b If true, it is not possible to create new Tradeable Contracts.\r\n   */\r\n\tfunction setCircuitBreaker (bool b) public onlyOwner {\r\n\t\tstopped = b;\r\n\t} \t\r\n\r\n  /**\r\n   * @dev Returns the number of Tradeable Contract created. \r\n   * @return contractCount the number of Tradeable Contract created.\r\n   */\r\n\tfunction getContractCount() public view returns(uint contractCount) {\r\n\t\treturn contracts.length;\r\n\t}\r\n\r\n  /**\r\n   * @dev Returns the address the Tradeable Contract created on a specific index. \r\n   * @param index index of the desirable result\r\n   * @return the address of the desirable Tradeable contract or 0x0 (if not found)\r\n   */\r\n\tfunction getContractAt(uint index) public view returns (address) {\r\n\t\tif (index<contracts.length) {\r\n\t\t\treturn contracts[index];\r\n\t\t}\r\n\t\treturn 0x0;\r\n\t}\r\n\r\n  /**\r\n   * @dev Returns the owner of this contract.\r\n   * @return the owner of this contract.\r\n   */\r\n\tfunction getOwner() public view returns (address) {\r\n\t\treturn owner;\r\n\t}\r\n\r\n}",
  "sourcePath": "C:\\workspace\\tradeable-wallet\\back-blockchain\\contracts\\ContractCreator.sol",
  "compiler": {
    "name": "solc",
    "version": "0.4.24+commit.e67f0147.Emscripten.clang"
  },
  "schemaVersion": "2.0.1",
  "updatedAt": "2018-11-04T04:09:50.635Z"
}