{
  "contractName": "ContractCalledInLowLevel_Mock",
  "abi": [
    {
      "constant": true,
      "inputs": [],
      "name": "lastReceivedUint",
      "outputs": [
        {
          "name": "",
          "type": "uint256"
        }
      ],
      "payable": false,
      "stateMutability": "view",
      "type": "function"
    },
    {
      "inputs": [
        {
          "name": "newDepositDestinationAddress",
          "type": "address"
        }
      ],
      "payable": false,
      "stateMutability": "nonpayable",
      "type": "constructor"
    },
    {
      "anonymous": false,
      "inputs": [
        {
          "indexed": false,
          "name": "",
          "type": "uint256"
        }
      ],
      "name": "received",
      "type": "event"
    },
    {
      "constant": false,
      "inputs": [],
      "name": "deposit",
      "outputs": [],
      "payable": true,
      "stateMutability": "payable",
      "type": "function"
    },
    {
      "constant": false,
      "inputs": [],
      "name": "receiver",
      "outputs": [],
      "payable": true,
      "stateMutability": "payable",
      "type": "function"
    },
    {
      "constant": false,
      "inputs": [
        {
          "name": "test",
          "type": "uint256"
        }
      ],
      "name": "receiverWithArgs",
      "outputs": [],
      "payable": true,
      "stateMutability": "payable",
      "type": "function"
    }
  ],
  "bytecode": "0x6080604052600060015534801561001557600080fd5b5060405160208061029b83398101806040528101908080519060200190929190505050806000806101000a81548173ffffffffffffffffffffffffffffffffffffffff021916908373ffffffffffffffffffffffffffffffffffffffff16021790555050610213806100886000396000f300608060405260043610610062576000357c0100000000000000000000000000000000000000000000000000000000900463ffffffff168063b0ee87e414610067578063d0e30db014610087578063f2944bf714610091578063f7260d3e146100bc575b600080fd5b610085600480360381019080803590602001909291905050506100c6565b005b61008f610107565b005b34801561009d57600080fd5b506100a66101a8565b6040518082815260200191505060405180910390f35b6100c46101ae565b005b806001819055507fe66f0a779f42a53dbb677b5713ab20003216db33f14e5e97ae193ea7c04432c0346040518082815260200191505060405180910390a150565b7fe66f0a779f42a53dbb677b5713ab20003216db33f14e5e97ae193ea7c04432c0346040518082815260200191505060405180910390a16000809054906101000a900473ffffffffffffffffffffffffffffffffffffffff1673ffffffffffffffffffffffffffffffffffffffff166108fc349081150290604051600060405180830381858888f193505050501580156101a5573d6000803e3d6000fd5b50565b60015481565b7fe66f0a779f42a53dbb677b5713ab20003216db33f14e5e97ae193ea7c04432c0346040518082815260200191505060405180910390a15600a165627a7a723058206ea9ae843b8d89d0ddd6eb33ffa7360a57c05cc57ec47e324721ba2e8e5db36d0029",
  "source": "pragma solidity ^0.4.23;\r\n\r\n/**\r\n * @title ContractCalledInLowLevel_Mock.\r\n */\r\ncontract ContractCalledInLowLevel_Mock {\r\n\r\n    address depositDestinationAddress;\r\n    uint256 public lastReceivedUint = 0;\r\n    event received( uint256 );\r\n\r\n\tconstructor (address newDepositDestinationAddress) public {\r\n        depositDestinationAddress = newDepositDestinationAddress;\r\n\t}\r\n\r\n\r\n\tfunction deposit() public payable {\r\n        emit received( msg.value );\r\n\t\tdepositDestinationAddress.transfer(msg.value);\r\n\t}\r\n\r\n    function receiver() public payable {\r\n        emit received( msg.value );\r\n    }\r\n\r\n    function receiverWithArgs( uint256 test ) public payable {\r\n        lastReceivedUint = test;\r\n        emit received( msg.value );\r\n    }    \r\n}",
  "sourcePath": "C:\\workspace\\tradeable-wallet\\back-blockchain\\contracts\\ContractCalledInLowLevel_Mock.sol",
  "compiler": {
    "name": "solc",
    "version": "0.4.24+commit.e67f0147.Emscripten.clang"
  },
  "schemaVersion": "2.0.1",
  "updatedAt": "2018-11-05T02:00:04.308Z"
}