{
  "contractName": "FeeContract",
  "abi": [
    {
      "constant": true,
      "inputs": [],
      "name": "denominatorFee",
      "outputs": [
        {
          "name": "",
          "type": "uint8"
        }
      ],
      "payable": false,
      "stateMutability": "view",
      "type": "function"
    },
    {
      "constant": true,
      "inputs": [],
      "name": "owner",
      "outputs": [
        {
          "name": "",
          "type": "address"
        }
      ],
      "payable": false,
      "stateMutability": "view",
      "type": "function"
    },
    {
      "inputs": [
        {
          "name": "newOwner",
          "type": "address"
        },
        {
          "name": "newDenominatorFee",
          "type": "uint8"
        },
        {
          "name": "newDestinationAddr",
          "type": "address"
        }
      ],
      "payable": false,
      "stateMutability": "nonpayable",
      "type": "constructor"
    },
    {
      "constant": false,
      "inputs": [
        {
          "name": "newDenominatorFee",
          "type": "uint8"
        }
      ],
      "name": "setDenominatorFee",
      "outputs": [],
      "payable": false,
      "stateMutability": "nonpayable",
      "type": "function"
    },
    {
      "constant": false,
      "inputs": [
        {
          "name": "newAddr",
          "type": "address"
        }
      ],
      "name": "setFeeDestinationAddress",
      "outputs": [],
      "payable": false,
      "stateMutability": "nonpayable",
      "type": "function"
    },
    {
      "constant": false,
      "inputs": [
        {
          "name": "newAddress",
          "type": "address"
        }
      ],
      "name": "addAmbassadorAddressAddress",
      "outputs": [],
      "payable": false,
      "stateMutability": "nonpayable",
      "type": "function"
    },
    {
      "constant": false,
      "inputs": [
        {
          "name": "addrToRemove",
          "type": "address"
        }
      ],
      "name": "deleteAmbassadorAddress",
      "outputs": [],
      "payable": false,
      "stateMutability": "nonpayable",
      "type": "function"
    },
    {
      "constant": true,
      "inputs": [
        {
          "name": "addr",
          "type": "address"
        }
      ],
      "name": "searchAmbassadorAddress",
      "outputs": [
        {
          "name": "",
          "type": "int8"
        }
      ],
      "payable": false,
      "stateMutability": "view",
      "type": "function"
    },
    {
      "constant": true,
      "inputs": [
        {
          "name": "index",
          "type": "uint256"
        }
      ],
      "name": "getAmbassadorAddressAt",
      "outputs": [
        {
          "name": "",
          "type": "address"
        }
      ],
      "payable": false,
      "stateMutability": "view",
      "type": "function"
    },
    {
      "constant": true,
      "inputs": [],
      "name": "getDenominatorFee",
      "outputs": [
        {
          "name": "",
          "type": "uint8"
        }
      ],
      "payable": false,
      "stateMutability": "view",
      "type": "function"
    },
    {
      "constant": true,
      "inputs": [],
      "name": "getFeeDestinationAddress",
      "outputs": [
        {
          "name": "",
          "type": "address"
        }
      ],
      "payable": false,
      "stateMutability": "view",
      "type": "function"
    },
    {
      "constant": true,
      "inputs": [
        {
          "name": "valueInWei",
          "type": "uint128"
        },
        {
          "name": "addr",
          "type": "address"
        }
      ],
      "name": "getFeeValueInWei",
      "outputs": [
        {
          "name": "",
          "type": "uint128"
        }
      ],
      "payable": false,
      "stateMutability": "view",
      "type": "function"
    }
  ],
  "bytecode": "0x608060405234801561001057600080fd5b50604051606080610b5283398101806040528101908080519060200190929190805190602001909291908051906020019092919050505060228260ff161015151561005a57600080fd5b82600260006101000a81548173ffffffffffffffffffffffffffffffffffffffff021916908373ffffffffffffffffffffffffffffffffffffffff160217905550816000806101000a81548160ff021916908360ff16021790555080600060016101000a81548173ffffffffffffffffffffffffffffffffffffffff021916908373ffffffffffffffffffffffffffffffffffffffff160217905550505050610a4a806101086000396000f3006080604052600436106100af576000357c0100000000000000000000000000000000000000000000000000000000900463ffffffff1680631a889ee0146100b45780631f2be9c9146100e457806326f8a07a146101155780634af1c8a914610158578063745598b814610189578063854bf6a1146102205780638a9ef1f8146102775780638da5cb5b146102e4578063b11ad2591461033b578063cedc11c714610398578063d0686deb146103db575b600080fd5b3480156100c057600080fd5b506100e2600480360381019080803560ff16906020019092919050505061041e565b005b3480156100f057600080fd5b506100f96104aa565b604051808260ff1660ff16815260200191505060405180910390f35b34801561012157600080fd5b50610156600480360381019080803573ffffffffffffffffffffffffffffffffffffffff1690602001909291905050506104bc565b005b34801561016457600080fd5b5061016d61055c565b604051808260ff1660ff16815260200191505060405180910390f35b34801561019557600080fd5b506101e660048036038101908080356fffffffffffffffffffffffffffffffff169060200190929190803573ffffffffffffffffffffffffffffffffffffffff169060200190929190505050610572565b60405180826fffffffffffffffffffffffffffffffff166fffffffffffffffffffffffffffffffff16815260200191505060405180910390f35b34801561022c57600080fd5b506102356105ee565b604051808273ffffffffffffffffffffffffffffffffffffffff1673ffffffffffffffffffffffffffffffffffffffff16815260200191505060405180910390f35b34801561028357600080fd5b506102a260048036038101908080359060200190929190505050610617565b604051808273ffffffffffffffffffffffffffffffffffffffff1673ffffffffffffffffffffffffffffffffffffffff16815260200191505060405180910390f35b3480156102f057600080fd5b506102f961066d565b604051808273ffffffffffffffffffffffffffffffffffffffff1673ffffffffffffffffffffffffffffffffffffffff16815260200191505060405180910390f35b34801561034757600080fd5b5061037c600480360381019080803573ffffffffffffffffffffffffffffffffffffffff169060200190929190505050610693565b604051808260000b60000b815260200191505060405180910390f35b3480156103a457600080fd5b506103d9600480360381019080803573ffffffffffffffffffffffffffffffffffffffff169060200190929190505050610759565b005b3480156103e757600080fd5b5061041c600480360381019080803573ffffffffffffffffffffffffffffffffffffffff16906020019092919050505061081e565b005b600260009054906101000a900473ffffffffffffffffffffffffffffffffffffffff1673ffffffffffffffffffffffffffffffffffffffff163373ffffffffffffffffffffffffffffffffffffffff1614151561047a57600080fd5b60228160ff161015151561048d57600080fd5b806000806101000a81548160ff021916908360ff16021790555050565b6000809054906101000a900460ff1681565b600260009054906101000a900473ffffffffffffffffffffffffffffffffffffffff1673ffffffffffffffffffffffffffffffffffffffff163373ffffffffffffffffffffffffffffffffffffffff1614151561051857600080fd5b80600060016101000a81548173ffffffffffffffffffffffffffffffffffffffff021916908373ffffffffffffffffffffffffffffffffffffffff16021790555050565b60008060009054906101000a900460ff16905090565b60008061057e83610693565b90507fffffffffffffffffffffffffffffffffffffffffffffffffffffffffffffffff8160000b1415156105b557600091506105e7565b6000809054906101000a900460ff1660ff16846fffffffffffffffffffffffffffffffff168115156105e357fe5b0491505b5092915050565b60008060019054906101000a900473ffffffffffffffffffffffffffffffffffffffff16905090565b60006001805490508210151561062c57600080fd5b60018281548110151561063b57fe5b9060005260206000200160009054906101000a900473ffffffffffffffffffffffffffffffffffffffff169050919050565b600260009054906101000a900473ffffffffffffffffffffffffffffffffffffffff1681565b60008060007fffffffffffffffffffffffffffffffffffffffffffffffffffffffffffffffff9150600090505b60018054905081101561074f578373ffffffffffffffffffffffffffffffffffffffff166001828154811015156106f357fe5b9060005260206000200160009054906101000a900473ffffffffffffffffffffffffffffffffffffffff1673ffffffffffffffffffffffffffffffffffffffff1614156107425780915061074f565b80806001019150506106c0565b8192505050919050565b600260009054906101000a900473ffffffffffffffffffffffffffffffffffffffff1673ffffffffffffffffffffffffffffffffffffffff163373ffffffffffffffffffffffffffffffffffffffff161415156107b557600080fd5b60018190806001815401808255809150509060018203906000526020600020016000909192909190916101000a81548173ffffffffffffffffffffffffffffffffffffffff021916908373ffffffffffffffffffffffffffffffffffffffff1602179055505050565b600080600260009054906101000a900473ffffffffffffffffffffffffffffffffffffffff1673ffffffffffffffffffffffffffffffffffffffff163373ffffffffffffffffffffffffffffffffffffffff1614151561087d57600080fd5b61088683610693565b91507fffffffffffffffffffffffffffffffffffffffffffffffffffffffffffffffff8260000b141515156108ba57600080fd5b8160000b90505b60018080549050038110156109705760018082018154811015156108e157fe5b9060005260206000200160009054906101000a900473ffffffffffffffffffffffffffffffffffffffff1660018281548110151561091b57fe5b9060005260206000200160006101000a81548173ffffffffffffffffffffffffffffffffffffffff021916908373ffffffffffffffffffffffffffffffffffffffff16021790555080806001019150506108c1565b60018080805490500381548110151561098557fe5b9060005260206000200160006101000a81549073ffffffffffffffffffffffffffffffffffffffff021916905560018054809190600190036109c791906109cd565b50505050565b8154818355818111156109f4578183600052602060002091820191016109f391906109f9565b5b505050565b610a1b91905b80821115610a175760008160009055506001016109ff565b5090565b905600a165627a7a723058201645cfee168fbb3ddad6115eebcc50772c171a126708d48d76a9fcc1e54e64040029",
  "source": "pragma solidity ^0.4.23;\r\n\r\n/**\r\n * @title FeeContract.\r\n */\r\ncontract FeeContract {\r\n\r\n\r\n  /**\r\n   * @dev Denominator to be used to caculate fee. \r\n   * The fee value is calculated by priceToSellInWei/denominatorFee.\r\n   * Should be a number >34 (because it will be used to calculate price/denominator, which should be <= 3%)\r\n   */\t\r\n  uint8 public denominatorFee;\r\n\r\n  address feeDestinationAddress;\r\n\r\n  address[] ambassadorAddress;\r\n\r\n  \r\n  /**\r\n   * @dev Owner of this contract.   \r\n   */\r\n\taddress public owner;\t\r\n  \r\n\t\r\n  /**\r\n   * @dev Assure that only the owner can invoke a function.   \r\n   */\r\n\tmodifier onlyOwner { \r\n\t\trequire(msg.sender == owner); \t\r\n\t\t_; \t\r\n\t}\t\t\r\n\t\r\n  /**\r\n   * @dev Create a new contract. \r\n   * The owner is going to be msg.sender.   \r\n   */\r\n\tconstructor (address newOwner, uint8 newDenominatorFee, address newDestinationAddr) public {\r\n\t\trequire (newDenominatorFee >= 34);\r\n\r\n\t\towner = newOwner;\r\n        denominatorFee = newDenominatorFee;\r\n        feeDestinationAddress = newDestinationAddr;\r\n\t}\r\n\r\n\tfunction setDenominatorFee(uint8 newDenominatorFee) public onlyOwner {\r\n\t\trequire (newDenominatorFee >= 34);\r\n        denominatorFee = newDenominatorFee;\r\n\t}\r\n\r\n\tfunction setFeeDestinationAddress(address newAddr) public onlyOwner {\r\n        feeDestinationAddress = newAddr;\r\n\t}\r\n\r\n\r\n    function addAmbassadorAddressAddress(address newAddress) onlyOwner external {\r\n        ambassadorAddress.push(newAddress);\r\n    }\r\n\r\n    function deleteAmbassadorAddress(address addrToRemove) onlyOwner external {\r\n\r\n        int8 index = searchAmbassadorAddress(addrToRemove); \r\n        \r\n        require(index!=-1);//find the element\r\n\r\n        for (uint i=uint(index); i<ambassadorAddress.length-1; i++) {\r\n            ambassadorAddress[i] = ambassadorAddress[i+1];\r\n        }\r\n        delete ambassadorAddress[ambassadorAddress.length-1];\r\n        ambassadorAddress.length--;\r\n    }\r\n\r\n    function searchAmbassadorAddress(address addr) view public returns (int8) {\r\n        int8 index = -1;\r\n        for (uint i=0; i<ambassadorAddress.length; i++) {\r\n            if (ambassadorAddress[i]==addr) {\r\n                \r\n                //There would not be so many ambassors to this line be a problem\r\n                index = int8(i);\r\n                break;\r\n            }\r\n        }\r\n        return index;\r\n    }\r\n\r\n    function getAmbassadorAddressAt(uint index) view external returns (address) {\r\n        require (index < ambassadorAddress.length);\r\n        return ambassadorAddress[index];\r\n    }\r\n\r\n\r\n  /**\r\n   * @dev Returns denominator to be used in the calculation of fee value\r\n   * The fee value is calculated by price (in Wei)/(denominator fee).\r\n   * @return Denominator to calculate fee value \r\n   */\r\n\tfunction getDenominatorFee() view external returns (uint8) {\r\n\t\treturn denominatorFee;\r\n\t}\r\n\r\n\tfunction getFeeDestinationAddress() view external returns (address) {\r\n\t\treturn feeDestinationAddress;\r\n\t}\r\n\r\n\r\n\tfunction getFeeValueInWei(uint128 valueInWei, address addr) view external returns (uint128) {\r\n\t\t\r\n        int8 indexAddrSeller = searchAmbassadorAddress(addr);\r\n        if (indexAddrSeller!=-1) {\r\n            return 0;\r\n        } \r\n        else {\r\n            return valueInWei/denominatorFee;\r\n        }\r\n\t}\r\n\r\n\r\n\r\n\r\n}",
  "sourcePath": "C:\\workspace\\tradeable-wallet\\back-blockchain\\contracts\\FeeContract.sol",
  "compiler": {
    "name": "solc",
    "version": "0.4.24+commit.e67f0147.Emscripten.clang"
  },
  "schemaVersion": "2.0.1",
  "updatedAt": "2018-11-04T04:09:50.640Z"
}