{
  "contractName": "FeeContract",
  "abi": [
    {
      "constant": true,
      "inputs": [],
      "name": "denominatorFee",
      "outputs": [
        {
          "name": "",
          "type": "uint8"
        }
      ],
      "payable": false,
      "stateMutability": "view",
      "type": "function"
    },
    {
      "constant": true,
      "inputs": [],
      "name": "owner",
      "outputs": [
        {
          "name": "",
          "type": "address"
        }
      ],
      "payable": false,
      "stateMutability": "view",
      "type": "function"
    },
    {
      "inputs": [
        {
          "name": "newOwner",
          "type": "address"
        },
        {
          "name": "newDenominatorFee",
          "type": "uint8"
        },
        {
          "name": "newDestinationAddr",
          "type": "address"
        }
      ],
      "payable": false,
      "stateMutability": "nonpayable",
      "type": "constructor"
    },
    {
      "constant": false,
      "inputs": [
        {
          "name": "newDenominatorFee",
          "type": "uint8"
        }
      ],
      "name": "setDenominatorFee",
      "outputs": [],
      "payable": false,
      "stateMutability": "nonpayable",
      "type": "function"
    },
    {
      "constant": false,
      "inputs": [
        {
          "name": "newAddr",
          "type": "address"
        }
      ],
      "name": "setFeeDestinationAddress",
      "outputs": [],
      "payable": false,
      "stateMutability": "nonpayable",
      "type": "function"
    },
    {
      "constant": false,
      "inputs": [
        {
          "name": "newAddress",
          "type": "address"
        }
      ],
      "name": "addAmbassadorAddressAddress",
      "outputs": [],
      "payable": false,
      "stateMutability": "nonpayable",
      "type": "function"
    },
    {
      "constant": false,
      "inputs": [
        {
          "name": "addrToRemove",
          "type": "address"
        }
      ],
      "name": "deleteAmbassadorAddress",
      "outputs": [],
      "payable": false,
      "stateMutability": "nonpayable",
      "type": "function"
    },
    {
      "constant": true,
      "inputs": [
        {
          "name": "addr",
          "type": "address"
        }
      ],
      "name": "searchAmbassadorAddress",
      "outputs": [
        {
          "name": "",
          "type": "int8"
        }
      ],
      "payable": false,
      "stateMutability": "view",
      "type": "function"
    },
    {
      "constant": true,
      "inputs": [
        {
          "name": "index",
          "type": "uint256"
        }
      ],
      "name": "getAmbassadorAddressAt",
      "outputs": [
        {
          "name": "",
          "type": "address"
        }
      ],
      "payable": false,
      "stateMutability": "view",
      "type": "function"
    },
    {
      "constant": true,
      "inputs": [],
      "name": "getAmbassadorAddressLenght",
      "outputs": [
        {
          "name": "",
          "type": "uint256"
        }
      ],
      "payable": false,
      "stateMutability": "view",
      "type": "function"
    },
    {
      "constant": true,
      "inputs": [],
      "name": "getDenominatorFee",
      "outputs": [
        {
          "name": "",
          "type": "uint8"
        }
      ],
      "payable": false,
      "stateMutability": "view",
      "type": "function"
    },
    {
      "constant": true,
      "inputs": [],
      "name": "getFeeDestinationAddress",
      "outputs": [
        {
          "name": "",
          "type": "address"
        }
      ],
      "payable": false,
      "stateMutability": "view",
      "type": "function"
    },
    {
      "constant": true,
      "inputs": [
        {
          "name": "valueInWei",
          "type": "uint128"
        },
        {
          "name": "addr",
          "type": "address"
        }
      ],
      "name": "getFeeValueInWei",
      "outputs": [
        {
          "name": "",
          "type": "uint128"
        }
      ],
      "payable": false,
      "stateMutability": "view",
      "type": "function"
    }
  ],
  "bytecode": "0x608060405234801561001057600080fd5b50604051606080610b9583398101806040528101908080519060200190929190805190602001909291908051906020019092919050505060228260ff161015151561005a57600080fd5b82600260006101000a81548173ffffffffffffffffffffffffffffffffffffffff021916908373ffffffffffffffffffffffffffffffffffffffff160217905550816000806101000a81548160ff021916908360ff16021790555080600060016101000a81548173ffffffffffffffffffffffffffffffffffffffff021916908373ffffffffffffffffffffffffffffffffffffffff160217905550505050610a8d806101086000396000f3006080604052600436106100ba576000357c0100000000000000000000000000000000000000000000000000000000900463ffffffff16806319427867146100bf5780631a889ee0146100ea5780631f2be9c91461011a57806326f8a07a1461014b5780634af1c8a91461018e578063745598b8146101bf578063854bf6a1146102565780638a9ef1f8146102ad5780638da5cb5b1461031a578063b11ad25914610371578063cedc11c7146103ce578063d0686deb14610411575b600080fd5b3480156100cb57600080fd5b506100d4610454565b6040518082815260200191505060405180910390f35b3480156100f657600080fd5b50610118600480360381019080803560ff169060200190929190505050610461565b005b34801561012657600080fd5b5061012f6104ed565b604051808260ff1660ff16815260200191505060405180910390f35b34801561015757600080fd5b5061018c600480360381019080803573ffffffffffffffffffffffffffffffffffffffff1690602001909291905050506104ff565b005b34801561019a57600080fd5b506101a361059f565b604051808260ff1660ff16815260200191505060405180910390f35b3480156101cb57600080fd5b5061021c60048036038101908080356fffffffffffffffffffffffffffffffff169060200190929190803573ffffffffffffffffffffffffffffffffffffffff1690602001909291905050506105b5565b60405180826fffffffffffffffffffffffffffffffff166fffffffffffffffffffffffffffffffff16815260200191505060405180910390f35b34801561026257600080fd5b5061026b610631565b604051808273ffffffffffffffffffffffffffffffffffffffff1673ffffffffffffffffffffffffffffffffffffffff16815260200191505060405180910390f35b3480156102b957600080fd5b506102d86004803603810190808035906020019092919050505061065a565b604051808273ffffffffffffffffffffffffffffffffffffffff1673ffffffffffffffffffffffffffffffffffffffff16815260200191505060405180910390f35b34801561032657600080fd5b5061032f6106b0565b604051808273ffffffffffffffffffffffffffffffffffffffff1673ffffffffffffffffffffffffffffffffffffffff16815260200191505060405180910390f35b34801561037d57600080fd5b506103b2600480360381019080803573ffffffffffffffffffffffffffffffffffffffff1690602001909291905050506106d6565b604051808260000b60000b815260200191505060405180910390f35b3480156103da57600080fd5b5061040f600480360381019080803573ffffffffffffffffffffffffffffffffffffffff16906020019092919050505061079c565b005b34801561041d57600080fd5b50610452600480360381019080803573ffffffffffffffffffffffffffffffffffffffff169060200190929190505050610861565b005b6000600180549050905090565b600260009054906101000a900473ffffffffffffffffffffffffffffffffffffffff1673ffffffffffffffffffffffffffffffffffffffff163373ffffffffffffffffffffffffffffffffffffffff161415156104bd57600080fd5b60228160ff16101515156104d057600080fd5b806000806101000a81548160ff021916908360ff16021790555050565b6000809054906101000a900460ff1681565b600260009054906101000a900473ffffffffffffffffffffffffffffffffffffffff1673ffffffffffffffffffffffffffffffffffffffff163373ffffffffffffffffffffffffffffffffffffffff1614151561055b57600080fd5b80600060016101000a81548173ffffffffffffffffffffffffffffffffffffffff021916908373ffffffffffffffffffffffffffffffffffffffff16021790555050565b60008060009054906101000a900460ff16905090565b6000806105c1836106d6565b90507fffffffffffffffffffffffffffffffffffffffffffffffffffffffffffffffff8160000b1415156105f8576000915061062a565b6000809054906101000a900460ff1660ff16846fffffffffffffffffffffffffffffffff1681151561062657fe5b0491505b5092915050565b60008060019054906101000a900473ffffffffffffffffffffffffffffffffffffffff16905090565b60006001805490508210151561066f57600080fd5b60018281548110151561067e57fe5b9060005260206000200160009054906101000a900473ffffffffffffffffffffffffffffffffffffffff169050919050565b600260009054906101000a900473ffffffffffffffffffffffffffffffffffffffff1681565b60008060007fffffffffffffffffffffffffffffffffffffffffffffffffffffffffffffffff9150600090505b600180549050811015610792578373ffffffffffffffffffffffffffffffffffffffff1660018281548110151561073657fe5b9060005260206000200160009054906101000a900473ffffffffffffffffffffffffffffffffffffffff1673ffffffffffffffffffffffffffffffffffffffff16141561078557809150610792565b8080600101915050610703565b8192505050919050565b600260009054906101000a900473ffffffffffffffffffffffffffffffffffffffff1673ffffffffffffffffffffffffffffffffffffffff163373ffffffffffffffffffffffffffffffffffffffff161415156107f857600080fd5b60018190806001815401808255809150509060018203906000526020600020016000909192909190916101000a81548173ffffffffffffffffffffffffffffffffffffffff021916908373ffffffffffffffffffffffffffffffffffffffff1602179055505050565b600080600260009054906101000a900473ffffffffffffffffffffffffffffffffffffffff1673ffffffffffffffffffffffffffffffffffffffff163373ffffffffffffffffffffffffffffffffffffffff161415156108c057600080fd5b6108c9836106d6565b91507fffffffffffffffffffffffffffffffffffffffffffffffffffffffffffffffff8260000b141515156108fd57600080fd5b8160000b90505b60018080549050038110156109b357600180820181548110151561092457fe5b9060005260206000200160009054906101000a900473ffffffffffffffffffffffffffffffffffffffff1660018281548110151561095e57fe5b9060005260206000200160006101000a81548173ffffffffffffffffffffffffffffffffffffffff021916908373ffffffffffffffffffffffffffffffffffffffff1602179055508080600101915050610904565b6001808080549050038154811015156109c857fe5b9060005260206000200160006101000a81549073ffffffffffffffffffffffffffffffffffffffff02191690556001805480919060019003610a0a9190610a10565b50505050565b815481835581811115610a3757818360005260206000209182019101610a369190610a3c565b5b505050565b610a5e91905b80821115610a5a576000816000905550600101610a42565b5090565b905600a165627a7a723058208a19787d55d2cf3dec835ee091c4ee8d4095f32e88cce833fde29d60a06605be0029",
  "source": "pragma solidity ^0.4.23;\r\n\r\n/**\r\n * @title FeeContract.\r\n */\r\ncontract FeeContract {\r\n\r\n\r\n  /**\r\n   * @dev Denominator to be used to caculate fee. \r\n   * The fee value is calculated by priceToSellInWei/denominatorFee.\r\n   * Should be a number >34 (because it will be used to calculate price/denominator, which should be <= 3%)\r\n   */\t\r\n  uint8 public denominatorFee;\r\n\r\n  address feeDestinationAddress;\r\n\r\n  address[] ambassadorAddress;\r\n\r\n  \r\n  /**\r\n   * @dev Owner of this contract.   \r\n   */\r\n\taddress public owner;\t\r\n  \r\n\t\r\n  /**\r\n   * @dev Assure that only the owner can invoke a function.   \r\n   */\r\n\tmodifier onlyOwner { \r\n\t\trequire(msg.sender == owner); \t\r\n\t\t_; \t\r\n\t}\t\t\r\n\t\r\n  /**\r\n   * @dev Create a new contract. \r\n   * The owner is going to be msg.sender. \r\n   *   \r\n   */\r\n\tconstructor (address newOwner, uint8 newDenominatorFee, address newDestinationAddr) public {\r\n\t\trequire (newDenominatorFee >= 34); //The fee must be at most 3%\r\n\r\n\t\towner = newOwner;\r\n        denominatorFee = newDenominatorFee;\r\n        feeDestinationAddress = newDestinationAddr;\r\n\t}\r\n\r\n\tfunction setDenominatorFee(uint8 newDenominatorFee) public onlyOwner {\r\n\t\trequire (newDenominatorFee >= 34);\r\n        denominatorFee = newDenominatorFee;\r\n\t}\r\n\r\n\tfunction setFeeDestinationAddress(address newAddr) public onlyOwner {\r\n        feeDestinationAddress = newAddr;\r\n\t}\r\n\r\n\r\n    function addAmbassadorAddressAddress(address newAddress) onlyOwner external {\r\n        ambassadorAddress.push(newAddress);\r\n    }\r\n\r\n    function deleteAmbassadorAddress(address addrToRemove) onlyOwner external {\r\n\r\n        int8 index = searchAmbassadorAddress(addrToRemove); \r\n        \r\n        require(index!=-1);//find the element\r\n\r\n        for (uint i=uint(index); i<ambassadorAddress.length-1; i++) {\r\n            ambassadorAddress[i] = ambassadorAddress[i+1];\r\n        }\r\n        delete ambassadorAddress[ambassadorAddress.length-1];\r\n        ambassadorAddress.length--;\r\n    }\r\n\r\n    function searchAmbassadorAddress(address addr) view public returns (int8) {\r\n        int8 index = -1;\r\n        for (uint i=0; i<ambassadorAddress.length; i++) {\r\n            if (ambassadorAddress[i]==addr) {\r\n                \r\n                //There would not be so many ambassors to this line be a problem\r\n                index = int8(i);\r\n                break;\r\n            }\r\n        }\r\n        return index;\r\n    }\r\n\r\n    function getAmbassadorAddressAt(uint index) view external returns (address) {\r\n        require (index < ambassadorAddress.length);\r\n        return ambassadorAddress[index];\r\n    }\r\n\r\n    function getAmbassadorAddressLenght() view external returns (uint) {\r\n        return ambassadorAddress.length;\r\n    }\r\n\r\n  /**\r\n   * @dev Returns denominator to be used in the calculation of fee value\r\n   * The fee value is calculated by price (in Wei)/(denominator fee).\r\n   * @return Denominator to calculate fee value \r\n   */\r\n\tfunction getDenominatorFee() view external returns (uint8) {\r\n\t\treturn denominatorFee;\r\n\t}\r\n\r\n\tfunction getFeeDestinationAddress() view external returns (address) {\r\n\t\treturn feeDestinationAddress;\r\n\t}\r\n\r\n\r\n\tfunction getFeeValueInWei(uint128 valueInWei, address addr) view external returns (uint128) {\r\n\t\t\r\n        int8 indexAddrSeller = searchAmbassadorAddress(addr);\r\n        if (indexAddrSeller!=-1) {\r\n            return 0;\r\n        } \r\n        else {\r\n            return valueInWei/denominatorFee;\r\n        }\r\n\t}\r\n\r\n\r\n\r\n\r\n}",
  "sourcePath": "C:\\workspace\\tradeable-wallet\\back-blockchain\\contracts\\FeeContract.sol",
  "compiler": {
    "name": "solc",
    "version": "0.4.24+commit.e67f0147.Emscripten.clang"
  },
  "schemaVersion": "2.0.1",
  "updatedAt": "2018-11-06T01:54:36.060Z"
}