{
  "contractName": "TradeableContract",
  "abi": [
    {
      "constant": true,
      "inputs": [],
      "name": "feeContract",
      "outputs": [
        {
          "name": "",
          "type": "address"
        }
      ],
      "payable": false,
      "stateMutability": "view",
      "type": "function"
    },
    {
      "constant": true,
      "inputs": [],
      "name": "isAvailableToSell",
      "outputs": [
        {
          "name": "",
          "type": "bool"
        }
      ],
      "payable": false,
      "stateMutability": "view",
      "type": "function"
    },
    {
      "constant": true,
      "inputs": [],
      "name": "hashToDescription",
      "outputs": [
        {
          "name": "",
          "type": "string"
        }
      ],
      "payable": false,
      "stateMutability": "view",
      "type": "function"
    },
    {
      "constant": true,
      "inputs": [],
      "name": "blockNumberOfLastSellingOffering",
      "outputs": [
        {
          "name": "",
          "type": "uint256"
        }
      ],
      "payable": false,
      "stateMutability": "view",
      "type": "function"
    },
    {
      "constant": true,
      "inputs": [],
      "name": "owner",
      "outputs": [
        {
          "name": "",
          "type": "address"
        }
      ],
      "payable": false,
      "stateMutability": "view",
      "type": "function"
    },
    {
      "constant": true,
      "inputs": [],
      "name": "priceToSellInWei",
      "outputs": [
        {
          "name": "",
          "type": "uint128"
        }
      ],
      "payable": false,
      "stateMutability": "view",
      "type": "function"
    },
    {
      "constant": true,
      "inputs": [],
      "name": "numberOfBlocksToPreventFrontRunning",
      "outputs": [
        {
          "name": "",
          "type": "uint8"
        }
      ],
      "payable": false,
      "stateMutability": "view",
      "type": "function"
    },
    {
      "inputs": [
        {
          "name": "ownerAddr",
          "type": "address"
        },
        {
          "name": "feeContractReceived",
          "type": "address"
        },
        {
          "name": "numberOfBlocksToPreventFrontRunningReceived",
          "type": "uint8"
        }
      ],
      "payable": false,
      "stateMutability": "nonpayable",
      "type": "constructor"
    },
    {
      "payable": true,
      "stateMutability": "payable",
      "type": "fallback"
    },
    {
      "anonymous": false,
      "inputs": [
        {
          "indexed": false,
          "name": "old",
          "type": "address"
        },
        {
          "indexed": false,
          "name": "current",
          "type": "address"
        }
      ],
      "name": "NewOwnerEvent",
      "type": "event"
    },
    {
      "anonymous": false,
      "inputs": [
        {
          "indexed": false,
          "name": "tokenAddr",
          "type": "address"
        },
        {
          "indexed": false,
          "name": "owner",
          "type": "address"
        },
        {
          "indexed": false,
          "name": "value",
          "type": "uint256"
        },
        {
          "indexed": true,
          "name": "isWithdraw",
          "type": "bool"
        },
        {
          "indexed": false,
          "name": "sucess",
          "type": "bool"
        }
      ],
      "name": "TransferTokensEvent",
      "type": "event"
    },
    {
      "anonymous": false,
      "inputs": [
        {
          "indexed": false,
          "name": "owner",
          "type": "address"
        },
        {
          "indexed": false,
          "name": "value",
          "type": "uint256"
        },
        {
          "indexed": true,
          "name": "isWithdraw",
          "type": "bool"
        }
      ],
      "name": "TransferETHEvent",
      "type": "event"
    },
    {
      "anonymous": false,
      "inputs": [
        {
          "indexed": false,
          "name": "owner",
          "type": "address"
        },
        {
          "indexed": false,
          "name": "contractAddr",
          "type": "address"
        },
        {
          "indexed": true,
          "name": "isActionOfSelling",
          "type": "bool"
        }
      ],
      "name": "AvaliableToSellEvent",
      "type": "event"
    },
    {
      "anonymous": false,
      "inputs": [
        {
          "indexed": false,
          "name": "sender",
          "type": "address"
        }
      ],
      "name": "DepositReceivedEvent",
      "type": "event"
    },
    {
      "constant": true,
      "inputs": [],
      "name": "getOwner",
      "outputs": [
        {
          "name": "",
          "type": "address"
        }
      ],
      "payable": false,
      "stateMutability": "view",
      "type": "function"
    },
    {
      "constant": true,
      "inputs": [],
      "name": "getHashDescription",
      "outputs": [
        {
          "name": "",
          "type": "string"
        }
      ],
      "payable": false,
      "stateMutability": "view",
      "type": "function"
    },
    {
      "constant": true,
      "inputs": [],
      "name": "getDenominatorFee",
      "outputs": [
        {
          "name": "",
          "type": "uint8"
        }
      ],
      "payable": false,
      "stateMutability": "view",
      "type": "function"
    },
    {
      "constant": false,
      "inputs": [
        {
          "name": "hDescription",
          "type": "string"
        }
      ],
      "name": "changeHashDescription",
      "outputs": [],
      "payable": false,
      "stateMutability": "nonpayable",
      "type": "function"
    },
    {
      "constant": true,
      "inputs": [],
      "name": "getPriceToSellInWei",
      "outputs": [
        {
          "name": "",
          "type": "int256"
        }
      ],
      "payable": false,
      "stateMutability": "view",
      "type": "function"
    },
    {
      "constant": false,
      "inputs": [
        {
          "name": "priceInWei",
          "type": "uint128"
        },
        {
          "name": "hDescription",
          "type": "string"
        }
      ],
      "name": "setAvailableToSell",
      "outputs": [],
      "payable": false,
      "stateMutability": "nonpayable",
      "type": "function"
    },
    {
      "constant": false,
      "inputs": [],
      "name": "cancelSellingAction",
      "outputs": [],
      "payable": false,
      "stateMutability": "nonpayable",
      "type": "function"
    },
    {
      "constant": false,
      "inputs": [],
      "name": "untrustedChangeOwnershipWithTrade",
      "outputs": [],
      "payable": true,
      "stateMutability": "payable",
      "type": "function"
    },
    {
      "constant": false,
      "inputs": [
        {
          "name": "tokenAddr",
          "type": "address"
        },
        {
          "name": "value",
          "type": "uint256"
        }
      ],
      "name": "makeUntrustedWithdrawalOfTokens",
      "outputs": [
        {
          "name": "",
          "type": "bool"
        }
      ],
      "payable": false,
      "stateMutability": "nonpayable",
      "type": "function"
    },
    {
      "constant": false,
      "inputs": [
        {
          "name": "valueInWei",
          "type": "uint256"
        }
      ],
      "name": "makeUntrustWithdrawOfEther",
      "outputs": [],
      "payable": false,
      "stateMutability": "nonpayable",
      "type": "function"
    },
    {
      "constant": false,
      "inputs": [
        {
          "name": "tokenAddr",
          "type": "address"
        },
        {
          "name": "to",
          "type": "address"
        },
        {
          "name": "value",
          "type": "uint256"
        }
      ],
      "name": "makeUntrustedTokenTransferToOutside",
      "outputs": [
        {
          "name": "",
          "type": "bool"
        }
      ],
      "payable": false,
      "stateMutability": "nonpayable",
      "type": "function"
    },
    {
      "constant": false,
      "inputs": [
        {
          "name": "to",
          "type": "address"
        },
        {
          "name": "valueInWei",
          "type": "uint256"
        }
      ],
      "name": "makeUntrustedEtherTransferToOutside",
      "outputs": [],
      "payable": false,
      "stateMutability": "nonpayable",
      "type": "function"
    },
    {
      "constant": false,
      "inputs": [
        {
          "name": "to",
          "type": "address"
        },
        {
          "name": "valueInWei",
          "type": "uint256"
        },
        {
          "name": "hexData",
          "type": "bytes4"
        }
      ],
      "name": "makeUntrustedEtherTransferToOutsideToContractFunction",
      "outputs": [],
      "payable": false,
      "stateMutability": "nonpayable",
      "type": "function"
    },
    {
      "constant": true,
      "inputs": [],
      "name": "getEtherBalance",
      "outputs": [
        {
          "name": "",
          "type": "uint256"
        }
      ],
      "payable": false,
      "stateMutability": "view",
      "type": "function"
    },
    {
      "constant": true,
      "inputs": [
        {
          "name": "tokenAddr",
          "type": "address"
        }
      ],
      "name": "getTokenBalanceOf",
      "outputs": [
        {
          "name": "",
          "type": "uint256"
        }
      ],
      "payable": false,
      "stateMutability": "view",
      "type": "function"
    },
    {
      "constant": false,
      "inputs": [
        {
          "name": "_from",
          "type": "address"
        },
        {
          "name": "_value",
          "type": "uint256"
        },
        {
          "name": "_data",
          "type": "bytes"
        }
      ],
      "name": "tokenFallback",
      "outputs": [],
      "payable": false,
      "stateMutability": "nonpayable",
      "type": "function"
    },
    {
      "constant": true,
      "inputs": [],
      "name": "getTotalBlocksToFinishFrontRunningRiskExternal",
      "outputs": [
        {
          "name": "",
          "type": "uint256"
        }
      ],
      "payable": false,
      "stateMutability": "view",
      "type": "function"
    }
  ],
  "bytecode": "0x608060405234801561001057600080fd5b506040516060806121aa833981018060405281019080805190602001909291908051906020019092919080519060200190929190505050826000806101000a81548173ffffffffffffffffffffffffffffffffffffffff021916908373ffffffffffffffffffffffffffffffffffffffff16021790555081600360006101000a81548173ffffffffffffffffffffffffffffffffffffffff021916908373ffffffffffffffffffffffffffffffffffffffff16021790555080600360146101000a81548160ff021916908360ff1602179055507f09f86d61eb5d6904c1fa8e5f071f171ec90eccc6e0a7b61d563a7d693db815f660008060009054906101000a900473ffffffffffffffffffffffffffffffffffffffff16604051808373ffffffffffffffffffffffffffffffffffffffff1681526020018273ffffffffffffffffffffffffffffffffffffffff1673ffffffffffffffffffffffffffffffffffffffff1681526020019250505060405180910390a1505050612012806101986000396000f30060806040526004361061013e576000357c0100000000000000000000000000000000000000000000000000000000900463ffffffff16806306e29712146101b557806307cd25891461020c5780631221c8111461023b5780631db9ae6e14610268578063215238ac146102de57806343ff45641461036e5780634af1c8a9146103a9578063521568bd146103da5780635d6eb6ad146104055780636c49286e146104525780637ef4cb1f146104d757806382ef42ec146104ee5780638389454814610519578063893d20e814610570578063897fbabf146105c75780638da5cb5b14610657578063a60f7a38146106ae578063adff0b3f14610713578063b17fd1051461073e578063c0ee0b8a14610795578063c7f7bd1d146107fa578063cb7c86b214610849578063ea46193e14610853578063fdafbf321461087e575b60008036905014151561015057600080fd5b7fbf1867699ca82c037f48dd4280d187dc55f63fff3103b818cfcf938891ec9b1d33604051808273ffffffffffffffffffffffffffffffffffffffff1673ffffffffffffffffffffffffffffffffffffffff16815260200191505060405180910390a1005b3480156101c157600080fd5b506101ca6108af565b604051808273ffffffffffffffffffffffffffffffffffffffff1673ffffffffffffffffffffffffffffffffffffffff16815260200191505060405180910390f35b34801561021857600080fd5b506102216108d5565b604051808215151515815260200191505060405180910390f35b34801561024757600080fd5b50610266600480360381019080803590602001909291905050506108e8565b005b34801561027457600080fd5b506102dc600480360381019080803573ffffffffffffffffffffffffffffffffffffffff1690602001909291908035906020019092919080357bffffffffffffffffffffffffffffffffffffffffffffffffffffffff19169060200190929190505050610a7a565b005b3480156102ea57600080fd5b506102f3610c12565b6040518080602001828103825283818151815260200191508051906020019080838360005b83811015610333578082015181840152602081019050610318565b50505050905090810190601f1680156103605780820380516001836020036101000a031916815260200191505b509250505060405180910390f35b34801561037a57600080fd5b506103a7600480360381019080803590602001908201803590602001919091929391929390505050610cb0565b005b3480156103b557600080fd5b506103be610d21565b604051808260ff1660ff16815260200191505060405180910390f35b3480156103e657600080fd5b506103ef610de9565b6040518082815260200191505060405180910390f35b34801561041157600080fd5b50610450600480360381019080803573ffffffffffffffffffffffffffffffffffffffff16906020019092919080359060200190929190505050610e5f565b005b34801561045e57600080fd5b506104bd600480360381019080803573ffffffffffffffffffffffffffffffffffffffff169060200190929190803573ffffffffffffffffffffffffffffffffffffffff16906020019092919080359060200190929190505050611027565b604051808215151515815260200191505060405180910390f35b3480156104e357600080fd5b506104ec611235565b005b3480156104fa57600080fd5b50610503611356565b6040518082815260200191505060405180910390f35b34801561052557600080fd5b5061055a600480360381019080803573ffffffffffffffffffffffffffffffffffffffff16906020019092919050505061135c565b6040518082815260200191505060405180910390f35b34801561057c57600080fd5b5061058561143b565b604051808273ffffffffffffffffffffffffffffffffffffffff1673ffffffffffffffffffffffffffffffffffffffff16815260200191505060405180910390f35b3480156105d357600080fd5b506105dc611464565b6040518080602001828103825283818151815260200191508051906020019080838360005b8381101561061c578082015181840152602081019050610601565b50505050905090810190601f1680156106495780820380516001836020036101000a031916815260200191505b509250505060405180910390f35b34801561066357600080fd5b5061066c611506565b604051808273ffffffffffffffffffffffffffffffffffffffff1673ffffffffffffffffffffffffffffffffffffffff16815260200191505060405180910390f35b3480156106ba57600080fd5b506106f9600480360381019080803573ffffffffffffffffffffffffffffffffffffffff1690602001909291908035906020019092919050505061152b565b604051808215151515815260200191505060405180910390f35b34801561071f57600080fd5b5061072861177a565b6040518082815260200191505060405180910390f35b34801561074a57600080fd5b5061079360048036038101908080356fffffffffffffffffffffffffffffffff169060200190929190803590602001908201803590602001919091929391929390505050611789565b005b3480156107a157600080fd5b506107f8600480360381019080803573ffffffffffffffffffffffffffffffffffffffff1690602001909291908035906020019092919080359060200190820180359060200191909192939192939050505061190a565b005b34801561080657600080fd5b5061080f611910565b60405180826fffffffffffffffffffffffffffffffff166fffffffffffffffffffffffffffffffff16815260200191505060405180910390f35b610851611932565b005b34801561085f57600080fd5b50610868611e17565b6040518082815260200191505060405180910390f35b34801561088a57600080fd5b50610893611e36565b604051808260ff1660ff16815260200191505060405180910390f35b600360009054906101000a900473ffffffffffffffffffffffffffffffffffffffff1681565b600160109054906101000a900460ff1681565b6000809054906101000a900473ffffffffffffffffffffffffffffffffffffffff1673ffffffffffffffffffffffffffffffffffffffff163373ffffffffffffffffffffffffffffffffffffffff1614151561094357600080fd5b600061094d611e49565b14151561095957600080fd5b803073ffffffffffffffffffffffffffffffffffffffff16311015151561097f57600080fd5b600115157faac3f38d160a370c9036e0523257f13f774eb02a325abb4d94f4892409fe07836000809054906101000a900473ffffffffffffffffffffffffffffffffffffffff1683604051808373ffffffffffffffffffffffffffffffffffffffff1673ffffffffffffffffffffffffffffffffffffffff1681526020018281526020019250505060405180910390a26000809054906101000a900473ffffffffffffffffffffffffffffffffffffffff1673ffffffffffffffffffffffffffffffffffffffff166108fc829081150290604051600060405180830381858888f19350505050158015610a76573d6000803e3d6000fd5b5050565b6000809054906101000a900473ffffffffffffffffffffffffffffffffffffffff1673ffffffffffffffffffffffffffffffffffffffff163373ffffffffffffffffffffffffffffffffffffffff16141515610ad557600080fd5b6000610adf611e49565b141515610aeb57600080fd5b600073ffffffffffffffffffffffffffffffffffffffff168373ffffffffffffffffffffffffffffffffffffffff1614151515610b2757600080fd5b3073ffffffffffffffffffffffffffffffffffffffff168373ffffffffffffffffffffffffffffffffffffffff1614151515610b6257600080fd5b813073ffffffffffffffffffffffffffffffffffffffff163110151515610b8857600080fd5b8273ffffffffffffffffffffffffffffffffffffffff1682827c01000000000000000000000000000000000000000000000000000000009004906040518263ffffffff167c010000000000000000000000000000000000000000000000000000000002815260040160006040518083038185885af193505050501515610c0d57600080fd5b505050565b60028054600181600116156101000203166002900480601f016020809104026020016040519081016040528092919081815260200182805460018160011615610100020316600290048015610ca85780601f10610c7d57610100808354040283529160200191610ca8565b820191906000526020600020905b815481529060010190602001808311610c8b57829003601f168201915b505050505081565b6000809054906101000a900473ffffffffffffffffffffffffffffffffffffffff1673ffffffffffffffffffffffffffffffffffffffff163373ffffffffffffffffffffffffffffffffffffffff16141515610d0b57600080fd5b818160029190610d1c929190611f41565b505050565b6000600360009054906101000a900473ffffffffffffffffffffffffffffffffffffffff1673ffffffffffffffffffffffffffffffffffffffff16634af1c8a96040518163ffffffff167c0100000000000000000000000000000000000000000000000000000000028152600401602060405180830381600087803b158015610da957600080fd5b505af1158015610dbd573d6000803e3d6000fd5b505050506040513d6020811015610dd357600080fd5b8101908080519060200190929190505050905090565b6000600160109054906101000a900460ff1615610e3857600160009054906101000a90046fffffffffffffffffffffffffffffffff166fffffffffffffffffffffffffffffffff169050610e5c565b7fffffffffffffffffffffffffffffffffffffffffffffffffffffffffffffffff90505b90565b6000809054906101000a900473ffffffffffffffffffffffffffffffffffffffff1673ffffffffffffffffffffffffffffffffffffffff163373ffffffffffffffffffffffffffffffffffffffff16141515610eba57600080fd5b6000610ec4611e49565b141515610ed057600080fd5b600073ffffffffffffffffffffffffffffffffffffffff168273ffffffffffffffffffffffffffffffffffffffff1614151515610f0c57600080fd5b3073ffffffffffffffffffffffffffffffffffffffff168273ffffffffffffffffffffffffffffffffffffffff1614151515610f4757600080fd5b803073ffffffffffffffffffffffffffffffffffffffff163110151515610f6d57600080fd5b600015157faac3f38d160a370c9036e0523257f13f774eb02a325abb4d94f4892409fe07838383604051808373ffffffffffffffffffffffffffffffffffffffff1673ffffffffffffffffffffffffffffffffffffffff1681526020018281526020019250505060405180910390a28173ffffffffffffffffffffffffffffffffffffffff166108fc829081150290604051600060405180830381858888f19350505050158015611022573d6000803e3d6000fd5b505050565b6000806000809054906101000a900473ffffffffffffffffffffffffffffffffffffffff1673ffffffffffffffffffffffffffffffffffffffff163373ffffffffffffffffffffffffffffffffffffffff1614151561108557600080fd5b600061108f611e49565b14151561109b57600080fd5b8473ffffffffffffffffffffffffffffffffffffffff1663a9059cbb85856040518363ffffffff167c0100000000000000000000000000000000000000000000000000000000028152600401808373ffffffffffffffffffffffffffffffffffffffff1673ffffffffffffffffffffffffffffffffffffffff16815260200182815260200192505050602060405180830381600087803b15801561113e57600080fd5b505af1158015611152573d6000803e3d6000fd5b505050506040513d602081101561116857600080fd5b81019080805190602001909291905050509050600015157faeceea4a0cf1f3d21fe26bb8ba350edc1eadf24df06e0166857a4127b65aad0a86868685604051808573ffffffffffffffffffffffffffffffffffffffff1673ffffffffffffffffffffffffffffffffffffffff1681526020018473ffffffffffffffffffffffffffffffffffffffff1673ffffffffffffffffffffffffffffffffffffffff1681526020018381526020018215151515815260200194505050505060405180910390a2809150509392505050565b6000809054906101000a900473ffffffffffffffffffffffffffffffffffffffff1673ffffffffffffffffffffffffffffffffffffffff163373ffffffffffffffffffffffffffffffffffffffff1614151561129057600080fd5b611298611ec2565b600015157f6a7cf879f8e37cc344a869ab29c3812a797b256761624c25b4cc30ee89901efe6000809054906101000a900473ffffffffffffffffffffffffffffffffffffffff1630604051808373ffffffffffffffffffffffffffffffffffffffff1673ffffffffffffffffffffffffffffffffffffffff1681526020018273ffffffffffffffffffffffffffffffffffffffff1673ffffffffffffffffffffffffffffffffffffffff1681526020019250505060405180910390a2565b60045481565b60008173ffffffffffffffffffffffffffffffffffffffff166370a08231306040518263ffffffff167c0100000000000000000000000000000000000000000000000000000000028152600401808273ffffffffffffffffffffffffffffffffffffffff1673ffffffffffffffffffffffffffffffffffffffff168152602001915050602060405180830381600087803b1580156113f957600080fd5b505af115801561140d573d6000803e3d6000fd5b505050506040513d602081101561142357600080fd5b81019080805190602001909291905050509050919050565b60008060009054906101000a900473ffffffffffffffffffffffffffffffffffffffff16905090565b606060028054600181600116156101000203166002900480601f0160208091040260200160405190810160405280929190818152602001828054600181600116156101000203166002900480156114fc5780601f106114d1576101008083540402835291602001916114fc565b820191906000526020600020905b8154815290600101906020018083116114df57829003601f168201915b5050505050905090565b6000809054906101000a900473ffffffffffffffffffffffffffffffffffffffff1681565b6000806000809054906101000a900473ffffffffffffffffffffffffffffffffffffffff1673ffffffffffffffffffffffffffffffffffffffff163373ffffffffffffffffffffffffffffffffffffffff1614151561158957600080fd5b6000611593611e49565b14151561159f57600080fd5b8373ffffffffffffffffffffffffffffffffffffffff1663a9059cbb6000809054906101000a900473ffffffffffffffffffffffffffffffffffffffff16856040518363ffffffff167c0100000000000000000000000000000000000000000000000000000000028152600401808373ffffffffffffffffffffffffffffffffffffffff1673ffffffffffffffffffffffffffffffffffffffff16815260200182815260200192505050602060405180830381600087803b15801561166357600080fd5b505af1158015611677573d6000803e3d6000fd5b505050506040513d602081101561168d57600080fd5b81019080805190602001909291905050509050600115157faeceea4a0cf1f3d21fe26bb8ba350edc1eadf24df06e0166857a4127b65aad0a856000809054906101000a900473ffffffffffffffffffffffffffffffffffffffff168685604051808573ffffffffffffffffffffffffffffffffffffffff1673ffffffffffffffffffffffffffffffffffffffff1681526020018473ffffffffffffffffffffffffffffffffffffffff1673ffffffffffffffffffffffffffffffffffffffff1681526020018381526020018215151515815260200194505050505060405180910390a28091505092915050565b6000611784611e49565b905090565b6000809054906101000a900473ffffffffffffffffffffffffffffffffffffffff1673ffffffffffffffffffffffffffffffffffffffff163373ffffffffffffffffffffffffffffffffffffffff161415156117e457600080fd5b60018060106101000a81548160ff02191690831515021790555082600160006101000a8154816fffffffffffffffffffffffffffffffff02191690836fffffffffffffffffffffffffffffffff160217905550818160029190611848929190611f41565b50600115157f6a7cf879f8e37cc344a869ab29c3812a797b256761624c25b4cc30ee89901efe6000809054906101000a900473ffffffffffffffffffffffffffffffffffffffff1630604051808373ffffffffffffffffffffffffffffffffffffffff1673ffffffffffffffffffffffffffffffffffffffff1681526020018273ffffffffffffffffffffffffffffffffffffffff1673ffffffffffffffffffffffffffffffffffffffff1681526020019250505060405180910390a2505050565b50505050565b600160009054906101000a90046fffffffffffffffffffffffffffffffff1681565b60008060008060011515600160109054906101000a900460ff16151514151561195a57600080fd5b600160009054906101000a90046fffffffffffffffffffffffffffffffff166fffffffffffffffffffffffffffffffff16341015151561199957600080fd5b6000809054906101000a900473ffffffffffffffffffffffffffffffffffffffff169350336000806101000a81548173ffffffffffffffffffffffffffffffffffffffff021916908373ffffffffffffffffffffffffffffffffffffffff1602179055507f09f86d61eb5d6904c1fa8e5f071f171ec90eccc6e0a7b61d563a7d693db815f6846000809054906101000a900473ffffffffffffffffffffffffffffffffffffffff16604051808373ffffffffffffffffffffffffffffffffffffffff1673ffffffffffffffffffffffffffffffffffffffff1681526020018273ffffffffffffffffffffffffffffffffffffffff1673ffffffffffffffffffffffffffffffffffffffff1681526020019250505060405180910390a1611abd611ec2565b600360009054906101000a900473ffffffffffffffffffffffffffffffffffffffff1673ffffffffffffffffffffffffffffffffffffffff1663854bf6a16040518163ffffffff167c0100000000000000000000000000000000000000000000000000000000028152600401602060405180830381600087803b158015611b4357600080fd5b505af1158015611b57573d6000803e3d6000fd5b505050506040513d6020811015611b6d57600080fd5b81019080805190602001909291905050509250600360009054906101000a900473ffffffffffffffffffffffffffffffffffffffff1673ffffffffffffffffffffffffffffffffffffffff1663745598b8600160009054906101000a90046fffffffffffffffffffffffffffffffff166000809054906101000a900473ffffffffffffffffffffffffffffffffffffffff166040518363ffffffff167c010000000000000000000000000000000000000000000000000000000002815260040180836fffffffffffffffffffffffffffffffff166fffffffffffffffffffffffffffffffff1681526020018273ffffffffffffffffffffffffffffffffffffffff1673ffffffffffffffffffffffffffffffffffffffff16815260200192505050602060405180830381600087803b158015611ca857600080fd5b505af1158015611cbc573d6000803e3d6000fd5b505050506040513d6020811015611cd257600080fd5b8101908080519060200190929190505050915081600160009054906101000a90046fffffffffffffffffffffffffffffffff160390506000600160006101000a8154816fffffffffffffffffffffffffffffffff02191690836fffffffffffffffffffffffffffffffff1602179055506000826fffffffffffffffffffffffffffffffff16141515611db8578273ffffffffffffffffffffffffffffffffffffffff166108fc836fffffffffffffffffffffffffffffffff169081150290604051600060405180830381858888f19350505050158015611db6573d6000803e3d6000fd5b505b8373ffffffffffffffffffffffffffffffffffffffff166108fc826fffffffffffffffffffffffffffffffff169081150290604051600060405180830381858888f19350505050158015611e10573d6000803e3d6000fd5b5050505050565b60003073ffffffffffffffffffffffffffffffffffffffff1631905090565b600360149054906101000a900460ff1681565b6000600160109054906101000a900460ff16151515611e6757600080fd5b60006004541415611e7b5760009050611ebf565b600360149054906101000a900460ff1660ff166004540143101515611ea35760009050611ebf565b43600360149054906101000a900460ff1660ff16600454010390505b90565b6000809054906101000a900473ffffffffffffffffffffffffffffffffffffffff1673ffffffffffffffffffffffffffffffffffffffff163373ffffffffffffffffffffffffffffffffffffffff16141515611f1d57600080fd5b6000600160106101000a81548160ff02191690831515021790555043600481905550565b828054600181600116156101000203166002900490600052602060002090601f016020900481019282601f10611f8257803560ff1916838001178555611fb0565b82800160010185558215611fb0579182015b82811115611faf578235825591602001919060010190611f94565b5b509050611fbd9190611fc1565b5090565b611fe391905b80821115611fdf576000816000905550600101611fc7565b5090565b905600a165627a7a7230582096f957c495e41ccb497ba16da302e7f8ef02d828115f6e12bf6c113ade0fa9610029",
  "source": "pragma solidity ^0.4.23;\r\n\r\nimport \"./IERC20Token.sol\";\r\nimport \"./ITradeableContract.sol\";\r\nimport \"./IFeeContractToTradeableContract.sol\";\r\n\r\n/**\r\n * @title TradeableContract\r\n * @dev Contract that represent a Wallet, whose ownership can be traded (sell/buy).\r\n * This contract can be used to receive ERC20 tokens. \r\n */\r\ncontract TradeableContract is ITradeableContract {\r\n    \r\n  /**\r\n   * @dev Assure that only the owner can invoke a function.   \r\n   */\r\n\tmodifier onlyOwner {\r\n\t\trequire(msg.sender == owner); \t\r\n\t\t_;\r\n\t}\t\t\r\n\r\n\tmodifier isFrontRunningSafe {\r\n\t\trequire(getTotalBlocksToFinishFrontRunningRisk() == 0); \t\r\n\t\t_;\r\n\t}  \r\n\r\n  /**\r\n   * @dev Owner of this contract.   \r\n   */\t\r\n\taddress public owner;\r\n\r\n  /**\r\n   * @dev Price of this contract (the information is only valid if and only if the contract is available to sell.   \r\n   */\r\n\tuint128 public priceToSellInWei;\r\n\r\n  /**\r\n   * @dev Represent the info if the contract is available to sell or not. \r\n   * I could have used price as int and not used this field. It could assume -1 is the contract is not available to sell. \r\n   * However, it is safer to treat price always as uint.  \r\n   */\t\r\n\tbool public isAvailableToSell;\r\n\r\n  /**\r\n   * @dev Hash to the description of this contracts.    \r\n   * The description itself is stored off-chain.  \r\n   * It can be used during sell-buy transactions.\r\n   */\t\r\n\tstring public hashToDescription;\r\n\r\n  address public feeContract;\r\n\r\n  uint8 public numberOfBlocksToPreventFrontRunning; \r\n\r\n  uint256 public blockNumberOfLastSellingOffering;\r\n\r\n  /**\r\n   * @dev Create a new contract. \r\n   * @param ownerAddr is going to be the owner of this contract. \r\n   * It emits an event with the new onwer. Since there is no old owner, it is represented by 0x0.  \r\n   */\r\n\tconstructor (address ownerAddr, address feeContractReceived, uint8 numberOfBlocksToPreventFrontRunningReceived) public {\r\n\t\towner = ownerAddr;\r\n    feeContract = feeContractReceived;\r\n    numberOfBlocksToPreventFrontRunning = numberOfBlocksToPreventFrontRunningReceived;\r\n\t\temit NewOwnerEvent(0x0,owner);\r\n\t}\r\n\r\n\r\n  /**\r\n   * @dev Return the current owner of this contract.\r\n   * @return the owner of this contract.\r\n   */\t\r\n\tfunction getOwner() external view returns (address) {\r\n\t\treturn owner;\r\n\t}\r\n\r\n  /**\r\n   * @dev Return the hash description of this contract.\r\n   * @return the hash to the description of this contract.\r\n   */\t\r\n\tfunction getHashDescription() external view returns (string) {\r\n\t\treturn hashToDescription;\r\n\t}\r\n\r\n  /**\r\n   * @dev Returns denominator to be used in the calculation of fee value\r\n   * The fee value is calculated by price (in Wei)/(denominator fee).\r\n   * @return Denominator to calculate fee value \r\n   */\r\n\tfunction getDenominatorFee() view external returns (uint8) {\r\n\t\treturn IFeeContractToTradeableContract(feeContract).getDenominatorFee();\r\n\t}\r\n\r\n\r\n  /**\r\n   * @dev Change the hash to the description to this wallet\r\n   * @param hDescription new hash description to this wallet.\r\n   */\t\r\n\tfunction changeHashDescription(string hDescription) external onlyOwner {\r\n\t\thashToDescription = hDescription;\r\n\t}\r\n\r\n  /**\r\n   * @dev Return the price for sell this contract, in Wei. \r\n   * If the current owner does not put it for sale, the returned value is going to be -1.\r\n   * @return price in Wei or -1.\r\n   */\r\n\tfunction getPriceToSellInWei() external view returns (int256) {\t\t\r\n\t\tif (isAvailableToSell) {\r\n\t\t\treturn priceToSellInWei;\r\n\t\t}  \r\n\t\treturn -1;\r\n\t}\r\n\r\n\r\n   /**\r\n\t* @dev Indicate that this contract is available to sell.\r\n\t* It can only be called by the owner.\r\n\t* It emits an event in order to allow anyone to monitor new opportunities to buy.\r\n\t* @param priceInWei Price that the owner wants to sell this contract (in Wei)\r\n\t* @param hDescription Hash to the description of this contract \r\n\t*/\r\n \tfunction setAvailableToSell (uint128 priceInWei, string hDescription) external onlyOwner {\r\n\t\tisAvailableToSell = true;\r\n\t\tpriceToSellInWei = priceInWei;\r\n\t\thashToDescription = hDescription;\r\n\t\temit AvaliableToSellEvent(owner, address(this), true);\r\n\t}\r\n\r\n  function setStateNotSelling() internal onlyOwner {\r\n\t\tisAvailableToSell = false; \r\n    blockNumberOfLastSellingOffering = block.number;\r\n  }\r\n\r\n  function cancelSellingAction() external onlyOwner {\r\n\t\tsetStateNotSelling();\r\n\t\temit AvaliableToSellEvent(owner, address(this), false);\r\n  }\r\n\r\n\r\n   /**\r\n\t* @dev Change the ownership of this contract. It happens when someone buys an available to sell contract.\r\n\t* This functions is payable - It should receive necessary money to cover the contract price.\r\n\t*\r\n    * This function is marked as untrusted since this smart contract cannot trust the oldOwner code during the transfer.\r\n    * It executes the external calls as the last steps in order to avoid attacks.\r\n\t* FeeAddress is a well-know and safe address, so it must happen before the transfer to the oldOwner.\r\n    * It is important to note that who is going to invoke this function can see the oldOwner code before. \r\n\t*\r\n\t* This function follows the pattern Checks-Effects-Interactions in order to avoid reentrancy attacks. \r\n\t* In this function, the ownership is changed, the old owner receives what price in Wei he asked for \r\n\t* and a fee is collected. \r\n\t* It emits an event with the old and new owners.\r\n\t*/\r\n\tfunction untrustedChangeOwnershipWithTrade () payable external  {\r\n\r\n\t\t//Checks-Effects-Interactions pattern\r\n\r\n\t\t// CHECK - calculating values to transfer \r\n\t\trequire (isAvailableToSell==true);\r\n\t\trequire (msg.value >= priceToSellInWei);     \r\n\r\n\t\t//EFFECTS\r\n\t\taddress oldOwner = owner;      \r\n\t\towner = msg.sender;\r\n\t\temit NewOwnerEvent(oldOwner, owner); \t\r\n\r\n    setStateNotSelling();\r\n\r\n\t\taddress feeAddress = IFeeContractToTradeableContract(feeContract).getFeeDestinationAddress();\r\n\r\n\t\t// All integer division rounds down to the nearest integer. \r\n\t\tuint128 feeValueInWei = IFeeContractToTradeableContract(feeContract).getFeeValueInWei(priceToSellInWei, owner);\r\n\t\tuint128 valueToOwnerInWei = priceToSellInWei-feeValueInWei;\r\n\r\n\t\tpriceToSellInWei = 0; //Avoid reentrancy attack\r\n\r\n\t\t//INTERACTION\r\n    if (feeValueInWei!=0) {\r\n  \t\tfeeAddress.transfer(feeValueInWei);\r\n    }\r\n\t\toldOwner.transfer(valueToOwnerInWei);\r\n\r\n\t}\r\n\r\n   /**\r\n\t* @dev Since this contract represents a wallet it is worth to enable the possibility to receive ether.\r\n\t*/\r\n\tfunction() payable external { \r\n\t\t\r\n\t\t//avoid receive funds when someone just entered a wrong function name\r\n\t\trequire(msg.data.length == 0); \r\n\t\t\r\n\t\temit DepositReceivedEvent(msg.sender); \r\n\t}\r\n\r\n\r\n  /**\r\n   * @dev Transfer tokens to the owner of its contract. \r\n   * It is necessary to call the transfer function of the original ERC20 contract code.\r\n   *\r\n   * This function is marked as untrusted since this smart contract cannot trust the original code of the ERC-20 token.\r\n   * It executes the external call as the last step in order to avoid attacks.\r\n   * It is important to note that who is going to invoke this function can see the tokenAddr before. \r\n   *\r\n   * It emits an event representing the withdraw. \r\n   * It can only be called by the owner.\r\n   * \r\n   * @param tokenAddr IERC-20 address of tokens to be transfered.\r\n   * @param value Value of tokens to be withdraw.\r\n   * @return bool from the transfer function in the ERC-20 token.\r\n   */\r\n\tfunction makeUntrustedWithdrawalOfTokens (address tokenAddr, uint256 value) external onlyOwner isFrontRunningSafe returns (bool) {\r\n\r\n\t\tbool b = IERC20Token(tokenAddr).transfer(owner,value);\r\n\t\t\r\n\t\temit TransferTokensEvent(tokenAddr, owner, value, true, b);\r\n\r\n\t\treturn b;\r\n\r\n\t}\r\n\r\n  /**\r\n   * @dev Transfer ether from external contracts to the owner of its contract. \r\n   *\r\n   * This function is marked as untrusted since this smart contract cannot trust external calls.\r\n   * It does not return any value, throwing an exception in case of failure.\r\n   *\r\n   * It should emit an event representing the withdraw. \r\n   * It should only be called by the owner.\r\n   * \r\n   * @param valueInWei Value of ether to be withdraw (in Wei).\r\n   */\r\n\tfunction makeUntrustWithdrawOfEther(uint256 valueInWei) external onlyOwner isFrontRunningSafe {\r\n\t\t\r\n\t\trequire (address(this).balance >= valueInWei);\r\n\r\n\t\temit TransferETHEvent(owner, valueInWei, true);\r\n\r\n\t\t//Since it is Ether, the Ethereum plataform takes care of reentrancy attacks\r\n\t\towner.transfer(valueInWei);\r\n\t}\r\n\r\n\r\n  /**\r\n   * @dev Transfer tokens from this contract to an external account. \r\n   *\r\n   * This function is marked as untrusted since this smart contract cannot trust external calls.\r\n   *\r\n   * It should emit an event representing the transfer. \r\n   * It should only be called by the owner.\r\n   * \r\n   * @param tokenAddr IERC-20 address of tokens to be transfered.\r\n   * @param to address to be transfered.\r\n   * @param value Value of tokens to be transfered.\r\n   */\r\n\tfunction makeUntrustedTokenTransferToOutside(address tokenAddr, address to, uint256 value) external onlyOwner isFrontRunningSafe returns (bool) {\r\n\r\n\t\t//Did not check the same require as makeUntrustedEtherTransferToOutside in order to avoid \r\n\t\t//introducing any noise in the communication wih the ERC-20 token.\r\n\t\t//For example, maybe there is a semantic related to do a transfer to itself in the token contract. \r\n\r\n\t\tbool b = IERC20Token(tokenAddr).transfer(to,value);\r\n\t\t\r\n\t\temit TransferTokensEvent(tokenAddr, to, value, false, b);\r\n\r\n\t\treturn b;\r\n\r\n\t}\r\n\r\n\r\n  /**\r\n   * @dev Transfer Ether from this contract to an external account. \r\n   *\r\n   * This function is marked as untrusted since this smart contract cannot trust external calls.\r\n   * It does not return any value, throwing an exception in case of failure.\r\n   *\r\n   * It should emit an event representing the transfer. \r\n   * It should only be called by the owner.\r\n   * \r\n   * @param to address to be transfered.\r\n   * @param valueInWei Value of ether to be transfered.\r\n   */\r\n\tfunction makeUntrustedEtherTransferToOutside(address to, uint256 valueInWei) external onlyOwner isFrontRunningSafe {\r\n\r\n\t\trequire(to != address(0x0));\r\n    require(to != address(this));\r\n    require (address(this).balance >= valueInWei);\r\n\r\n\t\temit TransferETHEvent(to, valueInWei, false);\r\n\r\n\t\t//Since it is Ether, the Ethereum plataform takes care of reentrancy attacks\r\n\t\tto.transfer(valueInWei);\r\n\r\n\t}\r\n\r\n/*\r\nPremisses:\r\n- I do not know B's ABI\r\n- I do know what is the name of B's function to be called\r\n- B's function is payable and do not accept any arguments\r\n- hexData is the SHA3 of the name of the B's function in HEX\r\n*/\r\n\tfunction makeUntrustedEtherTransferToOutsideToContractFunction(address to, uint256 valueInWei, bytes4 hexData) external onlyOwner isFrontRunningSafe {\r\n\r\n\t\trequire(to != address(0x0));\r\n    require(to != address(this));\r\n    require (address(this).balance >= valueInWei);\r\n//?? falta colocar na interface e definir evento\r\n//\t\temit TransferETHEvent(to, valueInWei, false);\r\n    if(!to.call.value(valueInWei)(hexData)) revert();  \r\n\r\n\t}\r\n\r\n  /**\r\n   * @dev Return the ether balance of this contract. \r\n   * @return ether balance of this contract\r\n   */\r\n\tfunction getEtherBalance () external view returns (uint256) {\r\n\t    return address(this).balance;\r\n\t}\r\n\t\r\n\t\r\n  /**\r\n   * @dev Return the token balance of this contract.\r\n   * @param tokenAddr the address of the token which balance will be returned \r\n   * @return token balance of this contract\r\n   */\r\n\tfunction getTokenBalanceOf (address tokenAddr) external view returns (uint256){\r\n\t\treturn IERC20Token(tokenAddr).balanceOf(this);\t\t\r\n\t}\r\n\r\n\r\n/**\r\n * @dev Standard ERC223 function that will handle incoming token transfers.\r\n *\r\n * @param _from  Token sender address.\r\n * @param _value Amount of tokens.\r\n * @param _data  Transaction metadata.\r\n */\r\n    function tokenFallback(address _from, uint _value, bytes _data) external {\r\n\r\n    }\r\n\r\n    function getTotalBlocksToFinishFrontRunningRisk () view private returns (uint256) {\r\n     \r\n        require (!isAvailableToSell);  \r\n\r\n        if (blockNumberOfLastSellingOffering == 0) {\r\n          return 0;\r\n        }\r\n        if (block.number >= blockNumberOfLastSellingOffering + numberOfBlocksToPreventFrontRunning) {\r\n          return 0;\r\n        } \r\n\r\n        return ((blockNumberOfLastSellingOffering + numberOfBlocksToPreventFrontRunning) - block.number); \r\n    }\r\n\r\n    function getTotalBlocksToFinishFrontRunningRiskExternal () view external returns (uint256) {\r\n        return  getTotalBlocksToFinishFrontRunningRisk();\t\r\n    }\r\n\r\n\r\n} ",
  "sourcePath": "C:\\workspace\\tradeable-wallet\\back-blockchain\\contracts\\TradeableContract.sol",
  "compiler": {
    "name": "solc",
    "version": "0.4.24+commit.e67f0147.Emscripten.clang"
  },
  "schemaVersion": "2.0.1",
  "updatedAt": "2018-11-04T04:09:50.645Z"
}